:020000040800F2
:10280000A00D0020F53100083D2A00083F2A0008ED
:10281000432A0008472A00084B2A0008000000004D
:102820000000000000000000000000004F2A000827
:10283000512A000800000000532A0008552A000809
:102840000F3200080F3200080F3200080F32000864
:102850000F3200080F3200080F3200080F32000854
:102860000F3200080F3200080F3200080F32000844
:102870000F3200080F3200080F3200080F32000834
:102880000F3200080F3200080F3200080F32000824
:102890000F3200080F3200080F3200080F32000814
:1028A0000F3200080F3200080F3200080F32000804
:1028B0000F320008955300080F3200080F3200084D
:1028C0000F3200080F3200080F3200080F320008E4
:1028D0000F320008AD6300080F3200080B5F0008DC
:1028E000AF6500080F3200080F32000800F002F850
:1028F00000F04CF80AA090E8000C82448344AAF14E
:102900000107DA4501D100F041F8AFF2090EBAE84B
:102910000F0013F0010F18BFFB1A43F00103184713
:1029200094630000B4630000103A24BF78C878C1F3
:10293000FAD8520724BF30C830C144BF04680C60C5
:10294000704700000023002400250026103A28BF0D
:1029500078C1FBD8520728BF30C148BF0B60704711
:10296000782904F0F983002070471FB59DE8030023
:1029700004F00AFE05F076F904000020002105F0BD
:10298000D7F9401C60601FBD10B510BD05F009F9F6
:102990001146FFF7EAFF00F009F805F02FF903B43C
:1029A000FFF7F2FF03BC03F08FFB000000244FF49D
:1029B00020514FF0006000F0F4FF02F00BFC03F038
:1029C0002DFE02F00FFC4FF4165003F0FFF902F059
:1029D000BDFA4FF4E13003F086FB4FF47A71012029
:1029E00002F0A2FC03F024F802F06EFC03F08EFD6E
:1029F00003F0A6FD00200F4908600F49C1F8AC01A3
:102A000004F09EFA00B9012440F64441072003F087
:102A1000EFFD0DE003F0FEFD02F06FFC142002F06C
:102A20001EFC02F038FF1CB904F08AFA00B9012438
:102A3000F0E70000B001214200002142704700BFD2
:102A4000FEE700BFFEE700BFFEE700BFFEE77047FE
:102A500070477047704700000CB50020019000904F
:102A60006C48006840F480306A49086000BF6948DB
:102A7000006800F4003000900198401C019000981C
:102A800018B90198B0F5A06FF1D16248006800F460
:102A9000003010B10120009001E00020009000986B
:102AA000012843D15C48006840F010005A49086092
:102AB0000846006820F0030008600846006840F0FF
:102AC0000200086053484068524948600846406820
:102AD00048600846406840F48060486008464068A6
:102AE00020F47C1048600846406840F4E8104860D4
:102AF0000846006840F08070086000BF45480068E4
:102B000000F000700028F9D04248406820F003002F
:102B1000404948600846406840F00200486000BFF5
:102B20003C48406800F00C000828F9D10CBD10B5F5
:102B3000FFF792FF10BD10B53648006840F0010065
:102B400034490860084640683449084031494860C3
:102B500008460068324908402E4908600846006867
:102B600020F4802008600846406820F4FE00486099
:102B70004FF41F008860FFF7DAFF4FF0006029492B
:102B8000086010BD10B5002100200022214B5B68B9
:102B900003F00C0121B1042906D0082928D107E04F
:102BA000214B224C236027E01F4B204C236023E065
:102BB000184B5B6803F47010164B5B6803F48032AB
:102BC000022303EB904022B9194B4343174C236077
:102BD0000DE0104B5B6803F4003323B1144B434307
:102BE000124C236003E0104B4343104C236003E07E
:102BF0000D4B0E4C236000BF00BF064B5B68C3F358
:102C000003130C4CE15C094B1B68CB40074C236061
:102C100010BD000000100240002002400000FFF83C
:102C2000FFFFF6FE08ED00E000127A00000400202D
:102C300000093D000404002001460020FE4A1068FF
:102C400000F03800084310607047FB49096821F024
:102C50000801F94A11601146096801431160704783
:102C6000F549096821F01001F34A1160114609681D
:102C7000014311607047F148EF494860F0484860EF
:102C80007047EE48EC494860ED4848607047EA48B4
:102C9000006940F08000E84908617047E648006933
:102CA00040F08000E449086170470420E249C968A7
:102CB00001F0010109B101200EE0DF49C96801F00E
:102CC000040109B1022007E0DB49C96801F01001E5
:102CD00009B1032000E00420704700B50246042338
:102CE000FFF7E3FF034603E0FFF7DFFF0346521E53
:102CF000012B01D1002AF7D102B90523184600BDE6
:102D000030B5044604254FF43020FFF7E6FF0546B2
:102D1000042D17D1C848006940F00200C649086177
:102D200008464461006940F0400008614FF43020DB
:102D3000FFF7D3FF0546C048006941F6FD71084022
:102D4000BD490861284630BD10B504244FF4302039
:102D5000FFF7C3FF0446042C16D1B748006940F0C2
:102D60000400B54908610846006940F04000086168
:102D70004FF43020FFF7B1FF0446AF48006941F639
:102D8000FB710840AC490861204610BD00B5024601
:102D90000423FFF78AFF034603E0FFF786FF03469D
:102DA000521E012B01D1002AF7D102B90523184682
:102DB00000BD10B504244FF43020FFF7E7FF0446B0
:102DC000042C16D19C48006940F004009A4908611F
:102DD0000846006940F0400008614FF43020FFF7DA
:102DE000D5FF04469448006941F6FB7108409249BA
:102DF0000861204610BD00208F49C96901F0020119
:102E000009B1012000E00020704730B5A525042459
:102E1000FFF7F1FF00B100254FF43020FFF75DFF11
:102E20000446042C3AD185488349886084488860E8
:102E30000846006940F0200008610846006940F03B
:102E4000400008614FF43020FFF747FF0446042C90
:102E50001BD17948006941F6DF7108407649086165
:102E60000846006940F01000086176480580E002DD
:102E7000FFF733FF0446052C10D06F48006941F678
:102E8000EF7108406C49086108E0052C06D06A48DB
:102E9000006941F6EF71084067490861204630BD7E
:102EA00078B506460C46042500200090E802FFF79E
:102EB00014FF0546042D24D15F48006940F001004D
:102EC0005D4908613480E802FFF707FF0546042DDD
:102ED00010D1B01C0090200C00990880E802FFF788
:102EE000FCFE05465448006941F6FE71084052490F
:102EF000086106E05048006941F6FE7108404E49FD
:102F00000861284678BD70B504460D460426F002D7
:102F1000FFF7E3FE0646042E11D14748006940F052
:102F20000100454908612580F002FFF7D6FE0646FC
:102F30004148006941F6FE7108403F49086130464A
:102F400070BD70B505460E460424E002FFF7C5FECD
:102F50000446042C17D139483749886038488860BE
:102F60000846006940F0100008612E80E002FFF77B
:102F7000B4FE0446052C06D02F48006941F6EF71D7
:102F800008402D490861204670BD2DE9F0430446F4
:102F90004FF6FF763746B046B1460425E443E6B225
:102FA000C4F30727C4F307484FEA1469E802FFF7A0
:102FB00094FE0546042D49D120481F4988602048C9
:102FC00088600846006940F010000861FF2E06D0B6
:102FD0001C4808300680E802FFF77FFE0546042DF6
:102FE00008D1FF2F06D017480A300780E802FFF704
:102FF00074FE0546042D0AD1B8F1FF0F07D0114821
:103000000C30A0F80080E802FFF767FE0546042DAB
:103010000AD1B9F1FF0F07D00A480E30A0F800908E
:10302000E802FFF75AFE0546052D0FD00248006959
:1030300041F6EF71084007E0002002402301674598
:10304000AB89EFCD00F8FF1F664908612846BDE84F
:10305000F08330B5054604244FF43020FFF73DFEE1
:103060000446042C41D160485E4988605F4888600E
:103070000846006940F0200008610846006940F0F9
:10308000400008614FF43020FFF727FE0446042C6F
:1030900022D15448006941F6DF7108405149086166
:1030A0000846006940F0100008611DB10020504939
:1030B000088002E0A5204E4908804FF43020FFF739
:1030C0000CFE0446052C10D04648006941F6EF710D
:1030D00008404449086108E0052C06D041480069D1
:1030E00041F6DF7108403F490861204630BDF0B528
:1030F00005460E46174604243B483A4988603B483B
:103100008860E002FFF7E9FD0446042C19D1354838
:10311000006940F010003349086147F0F80030437F
:1031200028433349891C0880E002FFF7D6FD044696
:10313000052C06D02B48006941F6EF71084029495B
:1031400008612046F0BD2748C069800870472548BF
:10315000006A704700202349096801F0200109B185
:10316000012000E00020704729B11E4A1269024385
:103170001C4B1A6104E01B4A12698243194B1A6105
:10318000704701460020012908D1164AD26902F091
:1031900001020AB1012008E0002006E0114AD268CD
:1031A0000A400AB1012000E0002070470D49C860C4
:1031B000704704200B49C96801F0010109B10120E1
:1031C0000EE00849C96801F0040109B1022007E0D6
:1031D0000449C96801F0100109B1032000E004208E
:1031E000704700000020024023016745AB89EFCD06
:1031F00000F8FF1F0948804709480047FEE7FEE73F
:10320000FEE7FEE7FEE7FEE7FEE7FEE7FEE7FEE796
:1032100004480549054A064B70470000372B000853
:10322000ED280008A0070020A00D0020A009002024
:10323000A009002010B50446CC48844208D10121E1
:10324000042000F02DFB0021042000F029FB46E0C3
:10325000C748844208D10121082000F021FB002149
:10326000082000F01DFB3AE0C248844208D1012149
:10327000102000F015FB0021102000F011FB2EE0C3
:10328000BD48844208D10121202000F009FB002123
:10329000202000F005FB22E0B848844208D101213B
:1032A000402000F0FDFA0021402000F0F9FA16E07D
:1032B000B348844208D10121802000F0F1FA0021B6
:1032C000802000F0EDFA0AE0AE48844207D10121E7
:1032D000801500F0E5FA0021A01500F0E1FA10BD1C
:1032E00010B50121084600F0DBFA0021012000F0B2
:1032F000D7FA10BD2DE9F041024600250026002036
:1033000000230024002791F803C00CF00F0591F86A
:1033100003C00CF0100CBCF1000F03D091F802C0F8
:103320004CEA050591F800C0BCF1000F31D01468DB
:1033300000202BE04FF0010C0CFA00F3B1F800C0B4
:103340000CEA03069E4220D183004FF00F0C0CFACA
:1033500003F7BC4305FA03FC4CEA040491F803C0EC
:10336000BCF1280F06D14FF0010C0CFA00FCC2F89A
:1033700014C00AE091F803C0BCF1480F05D14FF02A
:10338000010C0CFA00FCC2F810C0401C0828D1D374
:103390001460B1F800C0BCF1FF0F34DD54680020A8
:1033A0002EE000F1080C4FF0010808FA0CF3B1F818
:1033B00000C00CEA03069E4221D183004FF00F0C9F
:1033C0000CFA03F7BC4305FA03FC4CEA040491F839
:1033D00003C0BCF1280F05D100F1080C08FA0CF865
:1033E000C2F8148091F803C0BCF1480F07D100F176
:1033F000080C4FF0010808FA0CF8C2F81080401CC5
:103400000828CED35460BDE8F0814FF6FF710180EB
:10341000022181700421C170704702460020936828
:103420000B400BB1012000E0002070470146886886
:1034300080B2704702460020D3680B400BB10120D8
:1034400000E0002070470146C86880B27047016103
:103450007047416170470AB1016100E04161704706
:10346000C16070474FF480320A438261816182619A
:1034700082698269704702460020434B18684FF604
:103480008073184040EA021008433F4B18607047B1
:103490003E49C8617047F0B50A4600230024002168
:1034A000002500F00046B6F1004F02D1364EF1691A
:1034B00001E0354E7168C0F3034583B200F4401655
:1034C000B6F5401F08D121F070612F4E766826F0C6
:1034D00070662D4F7E6012E000F48016B6F5801FF6
:1034E00006D1032606FA05F4A14341F0706106E017
:1034F000460D360103FA06F6B14341F0706122B180
:10350000460D360103FA06F6314300F00046B6F1E7
:10351000004F02D11C4EF16101E01B4E7160F0BD05
:1035200030B500228B071C0F0F2303FA04F2164B51
:1035300008338C1053F824309343134C08348D1007
:1035400044F8253023468C1053F824308C07240F80
:1035500000FA04F423430C4C08348D1044F8253051
:1035600030BD0A49DC3108607047000000080140A6
:10357000000C0140001001400014014000180140FF
:10358000001C0140002001400000014000002042DA
:10359000DF48006840F00100DD49086008464068E7
:1035A000DC490840DA49486008460068DA490840C2
:1035B000D74908600846006820F480200860084663
:1035C000406820F4FE0048604FF41F008860704798
:1035D000CF49096821F48031CD4A1160114609684C
:1035E00021F480211160B0F5803F03D0B0F5802F29
:1035F0000ED106E0C649096841F48031C44A116021
:1036000007E0C349096841F4A021C14A116000E004
:1036100000BF00BF704710B5014600220023002004
:103620004A11012A02D1BA4C236806E0022A02D1CB
:10363000B74C236A01E0B64C636A01F01F02012413
:1036400094401C400CB1012000E0002010BD38B5B2
:10365000002000900024002500BF3120FFF7DBFF91
:1036600005460098401C00900098B0F5A06F01D06E
:10367000002DF2D03120FFF7CEFF08B1012400E089
:103680000024204638BD01460020A14A106820F0E1
:10369000F80040EAC10010607047A0490860704718
:1036A000024600209A4B586820F47C1042EA01033D
:1036B0001843974B58607047984908667047014611
:1036C0000020934A506820F0030008435060704780
:1036D0008F48406800F00C007047014600208C4A7B
:1036E000506820F0F0000843506070470146002009
:1036F000874A506820F4E0600843506070470146F4
:103700000020834A506820F4605040EAC1005060B5
:10371000704729B17E4A527A02437D4B5A7204E0C7
:103720007B4A527A82437A4B5A7270477B49D8312E
:103730000860704701460020754A506820F44040F8
:103740000843506070470021714A20321170704A5E
:1037500082F82010012802D004280AD104E00121B7
:103760006B4A2032117005E00521694A2032117040
:1037700000E000BF00BF70476949086070476449B6
:10378000096A0143624A1162704765494439086019
:10379000704730B500210022002400235C4D6D6885
:1037A00005F00C0121B1042905D0082923D105E039
:1037B0005C4D056022E05B4D05601FE0544D6D6877
:1037C00005F47012524D6D6805F48034022505EB46
:1037D00092421CB9544D554305600BE04C4D6D6849
:1037E00005F400351DB1504D5543056002E04D4DC7
:1037F0005543056002E04B4D056000BF00BF444DDE
:103800006D6805F0F0010909484D6B5C0568DD4005
:1038100045603F4D6D6805F4E061090A434D6B5CFE
:103820004568DD4085603A4D6D6805F46051C90A10
:103830003E4D6B5C4568DD40C560354D6D6805F4F7
:103840004041890B3A4D6B5CC568B5FBF3F50561EA
:1038500030BD29B12E4A526902432D4B5A6104E012
:103860002B4A526982432A4B5A61704729B1284A30
:1038700092690243264B9A6104E0254A9269824389
:10388000234B9A61704729B1214AD2690243204BE8
:10389000DA6104E01E4AD26982431D4BDA61704747
:1038A00029B11B4AD2680243194BDA6004E0184A76
:1038B000D2688243164BDA60704729B1144A126904
:1038C0000243134B1A6104E0114A12698243104B00
:1038D0001A61704712494039086070470F49C8643F
:1038E00070470B49C87170470948406A40F08070C2
:1038F00007494862704701460020054A92680A401D
:103900000AB1012000E00020704701498872704729
:10391000001002400000FFF8FFFFF6FE00004242E8
:103920008004424200127A0000093D001404002085
:103930002404002031490143314A1160704770B5B9
:10394000002100230F22C47804B32D4C246804F412
:10395000E064C4F5E064210AC1F10403CA4044787C
:1039600004FA03F18478144021430901254C0678B8
:10397000A155047804F01F050124AC4005786D11B1
:10398000AD0005F1E025C5F8004109E0047804F038
:103990001F050124AC401C4D0678761145F82640E1
:1039A00070BD1A4A0A400243154B1B1F1A6070472C
:1039B00039B1134A121D12680243114B1B1D1A60C4
:1039C00006E00F4A121D126882430D4B1B1D1A6040
:1039D0007047042808D14FF0E021096941F0040143
:1039E0004FF0E022116107E04FF0E021096921F07A
:1039F00004014FF0E0221161704700000000FA0559
:103A00000CED00E000E400E080E100E080FFFF1F3B
:103A100010B50446FB48844209D101218803FFF711
:103A20003FFF00214FF48040FFF73AFF32E0F648B5
:103A3000844209D101214804FFF73FFF00214FF4E0
:103A40000030FFF73AFF25E0F048844209D1012118
:103A50008804FFF732FF00214FF48020FFF72DFF8D
:103A600018E0EB48844209D10121C804FFF725FF83
:103A700000214FF40020FFF720FF0BE0E5488442CF
:103A800008D101210805FFF718FF00214FF480102D
:103A9000FFF713FF10BD2DE9F04786B005460E462F
:103AA0000024A24600BFA1460027B08900B100BF94
:103AB0002F462C8A4CF6FF700440F08804432C8279
:103AC000AC894EF6F3100440B088318908437189FF
:103AD00008430443AC81AC8A4FF6FF400440B089F0
:103AE0000443AC8201A8FFF754FEC648874202D1C6
:103AF000DDF810A001E0DDF80CA0A88900F400407A
:103B000040B10AEBCA0000EB0A1031684900B0FB73
:103B1000F1F807E00AEBCA0000EB0A1031688900EF
:103B2000B0FBF1F86420B8FBF0F004012009642137
:103B300001FB1089A88900F4004040B1322000EB5D
:103B4000C900B0FBF1F000F00700044308E03220A8
:103B500000EB09106421B0FBF1F000F00F0004430A
:103B60002C8106B0BDE8F0874FF4165101600021AA
:103B70008180C18001810C214181002181817047B8
:103B800010B502460020108A4FF2FF0318400B8840
:103B90004C8823438C882343CC88234318431082CA
:103BA00010BD0021018041808180C180704721B11A
:103BB000828942F40052828104E082894DF6FF73CB
:103BC0001A4082817047F0B5034600240026002584
:103BD000002040F66A17B94200D100BF1846C1F371
:103BE000421401F01F06012707FA06F5012C01D146
:103BF0000C3004E0022C01D1103000E014301AB176
:103C000007682F43076002E00768AF430760F0BD15
:103C10001AB1838A0B43838202E0838A8B438382B7
:103C20007047028A4FF6F0731A400282028A0A43F2
:103C30000282704782894FF2FF731A408281828923
:103C40000A438281704721B1828942F00202828157
:103C500004E082894FF6FD731A4082817047028A20
:103C60004FF6DF731A400282028A0A4302827047CB
:103C700021B1028A42F48042028204E0028A4BF6B9
:103C8000FF731A4002827047C1F3080282807047B6
:103C900001468888C0F308007047818941F001011E
:103CA00081817047028BD2B20283028B42EA0122E9
:103CB00002837047028B02F47F420283028B0A4325
:103CC0000283704721B1828A42F02002828204E09E
:103CD000828A4FF6DF731A408282704721B1828A4E
:103CE00042F01002828204E0828A4FF6EF731A409B
:103CF0008282704721B1828A42F00802828204E007
:103D0000828A4FF6F7731A408282704721B1828906
:103D100042F40042828103E08289C2F30E02828172
:103D2000704721B1828A42F40062828204E0828A72
:103D30004FF2FF731A4082827047828A4FF6FB73FC
:103D40001A408282828A0A438282704721B1828A23
:103D500042F00202828204E0828A4FF6FD731A402A
:103D60008282704702460020B1F5007F00D100BF7B
:103D700013880B400BB1012000E00020704701F4D4
:103D80000072B2F5007F00D100BFCA4302807047C5
:103D900070B50246002400230025002040F66A1674
:103DA000B14200D100BFC1F3421501F01F0301264B
:103DB00006FA03F3012D02D19689334006E0022D65
:103DC00002D1168A334001E0968A33400C12012654
:103DD00006FA04F41688344013B10CB1012000E057
:103DE000002070BD10B50022002340F66A14A142E5
:103DF00000D100BF0A1201249440A3B2DC43048026
:103E000010BD000000380140004400400048004060
:103E1000004C00400050004010B50446FE4884426B
:103E200008D10121C014FFF73BFD0021E014FFF78A
:103E300037FDC4E0B4F1804F08D101210846FFF7F7
:103E40003CFD00210120FFF738FDB8E0F348844233
:103E500008D101210220FFF730FD00210220FFF7E9
:103E60002CFDACE0EE48844208D101210420FFF78C
:103E700024FD00210420FFF720FDA0E0E948844252
:103E800008D101210820FFF718FD00210820FFF7C5
:103E900014FD94E0E448844208D101211020FFF78A
:103EA0000CFD00211020FFF708FD88E0DF48844268
:103EB00008D101212020FFF700FD00212020FFF77D
:103EC000FCFC7CE0DA48844208D101214014FFF771
:103ED000E7FC00216014FFF7E3FC70E0D548844262
:103EE00009D10121C804FFF7DBFC00214FF40020B9
:103EF000FFF7D6FC63E0D048844209D101210805D0
:103F0000FFF7CEFC00214FF48010FFF7C9FC56E00C
:103F1000CA48844209D101214805FFF7C1FC0021AC
:103F20004FF40010FFF7BCFC49E0C548844208D1BB
:103F300001214020FFF7C1FC00214020FFF7BDFC1C
:103F40003DE0C048844208D101218020FFF7B5FC44
:103F500000218020FFF7B1FC31E0BB48844208D14A
:103F600001218015FFF7A9FC0021A015FFF7A5FC92
:103F700025E0B648844209D101210804FFF790FCEE
:103F800000214FF48030FFF78BFC18E0B0488442EA
:103F900009D101214804FFF783FC00214FF40030D0
:103FA000FFF77EFC0BE0AB48844208D10121880476
:103FB000FFF776FC00214FF48020FFF771FC10BD65
:103FC00000220288944B98420ED0994B98420BD015
:103FD000B0F1804F08D0914B984205D0904B984259
:103FE00002D0904B984204D14FF68F731A404B8801
:103FF0001A438D4B984207D08C4B984204D04FF611
:10400000FF431A40CB881A4302808B8883850B8834
:104010000385814B98420BD0854B984208D08B4B3F
:10402000984205D08A4B984202D08A4B984201D1DF
:104030000B7A038601238382704770B50024002227
:104040000023058C4FF6FE7635400584028C83886C
:10405000048B4FF68F752C40B51E2C400D882C43D9
:10406000751E2A400D892A434D882A436A4DA8426D
:104070000BD06F4DA84208D0744DA84205D0744DA6
:10408000A84202D0734DA84213D14FF6F7752A40CB
:104090004D892A434FF6FB752A408D882A434FF6F7
:1040A000FF652B404FF6FF552B408D892B43CD8963
:1040B0002B4383800483CD888586028470BD70B5D0
:1040C000002400220023058C4FF6EF76354005844E
:1040D000028C8388048B48F6FF752C404FF6FF4511
:1040E0002C400D884FF6FF7606EA05252C434FF647
:1040F000DF752A400D8906EA05152A434D8806EA30
:1041000005152A43444DA84202D0494DA8421DD16D
:104110004FF67F752A404D894FF6FF7606EA051562
:104120002A434FF6BF752A408D8806EA05152A43B3
:104130004FF6FF352B404FF2FF752B408D8906EA75
:1041400085052B43CD8906EA85052B4383800483AF
:10415000CD880587028470BD70B50024002200233D
:10416000058C4FF6FF6635400584028C8388848B6E
:104170004FF68F752C404FF6FC752C400D882C4364
:104180004FF6FF552A400D894FF6FF7606EA0525C2
:104190002A434D8806EA05252A431F4DA84202D02E
:1041A000234DA8421DD14FF2FF752A404D894FF68D
:1041B000FF7606EA05252A434FF6FF352A408D880B
:1041C00006EA05252A434EF6FF752B404DF6FF758E
:1041D0002B408D8906EA05152B43CD8906EA051586
:1041E0002B4383808483CD888587028470BD70B51E
:1041F000002200230024058C4EF6FF76354005840E
:10420000038C8488828B48F6FF752A404FF6FF4561
:104210002A400D8820E00000002C014000040040EE
:1042200000080040000C0040001000400014004056
:1042300000340140004C0140005001400054014056
:1042400000180040001C00400020004000400140D9
:1042500000440140004801404FF6FF7606EA05257C
:104260002A434DF6FF752B400D8906EA05352B4391
:104270004D8806EA05352B43FA4DA84202D0FA4D87
:10428000A84208D14BF6FF752C408D894FF6FF767A
:1042900006EA85152C4384808283CD88A0F840509F
:1042A000038470BD828B4FF2FF331A408283828B6E
:1042B0004FF6FF7303EA01231A4382837047F0B578
:1042C0000C461546002200210026078C4EF6FF7C86
:1042D00007EA0C070784828B018C4FF6FF7707EA09
:1042E000043640F6FF473A404FF6FF7707EA0527C6
:1042F0003A434FF6FF7707EA03373A43D94FB842BC
:104300000ED0D94FB8420BD0B0F1804F08D0D74F64
:10431000B84205D0D64FB84202D0D64FB84206D1E7
:104320004DF6FF77394046F48057394305E047F6AC
:10433000FF57394044F48057394382830184F0BDEC
:10434000828B4FF6F3731A408283828B0A438283F7
:104350007047F0B50C461546002200210026078C58
:104360004FF6FF6C07EA0C070784828B018C4FF62F
:10437000FF7707EA04264FF60C773A404FF6FF77AF
:1043800007EA03172F433A43B64FB8420ED0B64F51
:10439000B8420BD0B0F1804F08D0B44FB84205D02E
:1043A000B34FB84202D0B34FB84206D14FF6FF57D1
:1043B000394046F48077394305E04FF2FF573940E2
:1043C00044F48077394382830184F0BD028B4FF23D
:1043D000FF331A400283028B4FF6FF7303EA012377
:1043E0001A4302837047F0B50C461546002200219F
:1043F0000026078C4FF6EF7C07EA0C070784028B38
:10440000018C4FF6FF7707EA041640F6FF473A4063
:104410004FF6FF7707EA03373A434FF6FF7707EA8D
:1044200005273A438F4FB8420ED08F4FB8420BD07A
:10443000B0F1804F08D08D4FB84205D08C4FB842B4
:1044400002D08C4FB84206D14FF6DF77394046F0A4
:104450001007394305E04FF65F77394044F0100705
:10446000394302830184F0BD028B4FF6F3731A4087
:104470000283028B0A4302837047F0B50C4615464F
:1044800000220021068C4FF6FE773E400684028B08
:10449000018C4FF60C7632407E1C06EA03162E4342
:1044A0003243704EB0420ED06F4EB0420BD0B0F1DE
:1044B000804F08D06D4EB04205D06D4EB04202D054
:1044C0006C4EB04206D14FF6FD76314044F0010605
:1044D000314305E04FF6F576314044F001063143B3
:1044E00002830184F0BD70B505460C465D488542E7
:1044F0000ED05D4885420BD0B5F1804F08D05B48A7
:10450000854205D05A48854202D05A48854200D19A
:1045100000E000BF208850B92389A288618828461E
:10452000FFF7ABFFE1882846FFF79EFF25E02088D4
:1045300004280AD12389A28861882846FFF753FFFF
:10454000E1882846FFF742FF17E0208808280AD1B3
:104550002389A28861882846FFF7FBFEE188284668
:10456000FFF7EEFE09E02389A28861882846FFF75D
:10457000A6FEE1882846FFF795FE70BD2DE9F041C3
:1045800005460C4600260127608808B9022600E08F
:104590000026A088012801D1022700E001272088F9
:1045A000A0B92389A28861882846FFF766FFE188C1
:1045B0002846FFF759FF23893A4631462846FFF738
:1045C00012FFE1882846FFF701FF13E02389A28844
:1045D00061882846FFF707FFE1882846FFF7F6FEC7
:1045E00023893A4631462846FFF747FFE1882846A7
:1045F000FFF73AFFBDE8F0810A884B881A438B88A1
:104600001A43CB881A430B891A434B891A438B8967
:104610001A43A0F8442070474FF6FF7181800021B3
:104620000180C1804180017270470021018041807A
:104630008180C180018141818181C18170470021D8
:1046400001804180012181800021C180018170476A
:104650000021018041808180C1800181418181816F
:1046600070470000002C014000340140000400406D
:1046700000080040000C004021B1028842F0010215
:10468000028004E002884FF6FE731A4002807047F1
:1046900031B1B0F8442042F40042A0F8442005E0D3
:1046A000B0F84420C2F30E02A0F8442070471AB1BB
:1046B00083890B43838102E083898B438381704725
:1046C0008182704741EA0203A0F8483070471AB16E
:1046D00083890B43838102E083898B438381704705
:1046E00001894FF6F8721140018170470A46002196
:1046F00001894FF68F73194011430181704730B51E
:1047000004460D4629462046FFF7F0FF208940F079
:104710000700208130BD2DE9F04104460D461646C4
:104720001F46602D06D13B46012231462046FFF749
:104730005AFE05E03B46012231462046FFF79DFE2A
:1047400029462046FFF7D2FF208940F0070020814C
:10475000BDE8F08130B50C4600210189C9B24FF6A1
:10476000FF7505EA0325154325432943018130BD23
:104770002DE9F04105460E4617469846002443466B
:104780003A4631462846FFF7E5FF2C894FF6F87088
:10479000044044F007044FF68F70044044F0700466
:1047A0002C81BDE8F081F0B504460D4616461F4643
:1047B0003B46324629462046FFF7CCFF208940F48D
:1047C00080402081F0BD0185828270470A46002129
:1047D00001884FF68F731940114301807047F0B57F
:1047E0000C4615461E460021002200230189028B3B
:1047F000038C4FF6F877394021434FF6FC473A4097
:1048000040F201173A434FF6DD773B404FF6FF7712
:1048100007EA06172F433B43018102830384F0BD5F
:104820000A460021018B4FF68F7319401143018313
:1048300070470A460021018B48F6FF7319404FF676
:10484000FF7303EA02231943018370470A460021DC
:10485000818B4FF68F7319401143818370470A464D
:104860000021818B48F6FF7319404FF6FF7303EA6E
:10487000022319438183704721B1028842F08002EC
:10488000028004E002884FF67F731A40028070476E
:1048900021B1828842F00402828004E082884FF6CF
:1048A000FB731A408280704721B1828842F008026F
:1048B000828004E082884FF6F7731A408280704746
:1048C00021B1828842F00102828004E082884FF6A2
:1048D000FE731A40828070470A460021018B4FF612
:1048E000F77319401143018370470A460021018B79
:1048F0004FF2FF7319404FF6FF7303EA0223194387
:10490000018370470A460021818B4FF6F7731940E7
:104910001143818370470A460021818B4FF2FF7358
:1049200019404FF6FF7303EA02231943818370474E
:104930000A460021018B4FF6FB7319401143018396
:1049400070470A460021018B4FF6FF3319404FF69E
:10495000FF7303EA02231943018370470A460021CB
:10496000818B4FF6FB7319401143818370470A46D0
:104970000021818B4FF6FF3319404FF6FF7303EA96
:1049800002231943818370470A460021018B4FF6A9
:104990007F7319401143018370470A460021018B40
:1049A000C1F30E014FF6FF7303EA0223194301839B
:1049B00070470A460021818B4FF67F7319401143DF
:1049C000818370470A460021818BC1F30E014FF6A7
:1049D000FF7303EA02231943818370470A460021CB
:1049E000018C4FF6FD7319401143018470470A464C
:1049F0000021018C4FF6F773194011430184704771
:104A00000A460021018C4FF6DF7319404FF6FF7301
:104A100003EA02131943018470470A460021018CFE
:104A20004FF67F7319404FF6FF7303EA02131943E1
:104A3000018470470A460021018C4FF6FF5319404C
:104A40004FF6FF7303EA02231943018470470A46B5
:104A50000021018C4FF2FF7319404FF6FF7303EAF8
:104A600002231943018470470A460021018C4DF648
:104A7000FF7319404FF6FF7303EA023319430184B1
:104A8000704730B5002301248C40A3B2048C9C43B2
:104A90000484048C02FA01F5ADB22C43048430BDC9
:104AA00030B5002304248C40A3B2048C9C430484BE
:104AB000048C02FA01F5ADB22C43048430BD70B50C
:104AC0000346002000241846183001258D40ACB262
:104AD0001D8CA5431D8409B1082909D100EB610093
:104AE000056825F0700505600568154305600EE052
:104AF0000D1FC5F34E052844056825F4E045056003
:104B000005684FF6FF7606EA02263543056070BD5C
:104B100021B1028842F00202028004E002884FF6CE
:104B2000FD731A400280704721B1028842F00402EE
:104B3000028004E002884FF6FB731A40028070473F
:104B400021B1828842F08002828004E082884FF6A0
:104B50007F731A408280704702884FF6F7731A40BD
:104B6000028002880A430280704782884FF68F7362
:104B70001A40828082880A438280704702894FF6F9
:104B8000F8731A40028102890A4302817047028940
:104B90004FF67F731A40028102890A4302817047EF
:104BA000818470478185704781867047018770478F
:104BB00081877047A0F84010704702884FF6FF4386
:104BC0001A40028002880A43028070470146888E9C
:104BD00070470146088F70470146888F704701462D
:104BE000B1F8400070470146888C70470146088D37
:104BF000704702460020138A0B400BB1012000E0F1
:104C000000207047CA430282704730B50246002038
:104C100000230024158A05EA0103958905EA0104A9
:104C200013B10CB1012000E0002030BDCA43028264
:104C300070470000002044490860091D0860091DF4
:104C40000860091D086041483F49143108607047F9
:104C500000213D498279002A3AD00A461268036849
:104C60009A430B461A600A1D126803689A430B1D8B
:104C70001A60027911440A6803681A430A60324ACA
:104C80000832126803689A432F4B08331A601A1DC2
:104C9000126803689A432C4B0C331A604279102A2D
:104CA0000ED11A1F126803681A43274B08331A6083
:104CB0001A1D126803681A43234B0C331A600DE067
:104CC0002149427911440A6803681A430A6005E0E1
:104CD000027911440A6803689A430A607047002108
:104CE000016001710C2141710021817170471649E9
:104CF000103109680143144A1032116070470146AF
:104D00000020114A143212680A400AB1012000E062
:104D1000002070470C49143108607047014600209C
:104D20000022094B1B6803EA0102074B14331B687E
:104D30000B4013B10AB1012000E000207047024986
:104D4000143108607047000000040140FFFF0F00AD
:104D50000E49086070470D49486070470B498860EC
:104D600070474AF6AA200949086070474CF6CC40C3
:104D700006490860704701460020044AD2680A408C
:104D80000AB1012000E00020704700000030004020
:104D90002DE9F04F87B0064600F0D8F8322000F039
:104DA0003AFA00F0EDF8802000F09EF900F029F9C1
:104DB000B0B9304600F098F900F023F980B900BF8F
:104DC000322000F028FA00F0DBF8812000F08CF9A6
:104DD00000F017F9012800D100E000200028EFD1F1
:104DE000322000F018FA002000F0ACF9044632201E
:104DF00000F011FA002000F0A5F90546002000F0AF
:104E0000A1F900F0DDF8322000F005FAFF2C05D101
:104E1000FF2D03D1002007B0BDE8F08F45EA042B39
:104E20002BF0030BF32E17D1584603F0A7FC01908B
:104E300003F020FC07463D4A3D4B03F033FA3D4A60
:104E40003D4BCDE9020103F02BFBCDE9040102F05B
:104E500085FF82465046DEE7584603F08FFC0190FE
:104E600003F008FC0746354A354B03F01BFA0022D5
:104E7000344BCDE9020103F013FBCDE9040102F04C
:104E80006DFF81464846C6E710B500F05FF800F0B8
:104E900077F8802000F028F9FE2000F025F900F0D6
:104EA0008FF810BD10B500F06BF8802000F01CF9F1
:104EB00000F0A7F850B9E62000F016F900F0A1F8CC
:104EC00020B9832000F010F900F09BF810BD08B560
:104ED00000200090F320FFF75BFF00909DF800009A
:104EE000194908709DF8010048709DF8020088700B
:104EF0009DF80300C8704FF0005100984861F520FC
:104F0000FFF746FF00909DF800000F4908719DF8DB
:104F1000010048719DF8020088719DF80300C87176
:104F20004FF000510098886108BD0000619FC6DE07
:104F300007F7653FCDCCCCCCCC6C47407644CF77DF
:104F400001405F3F00001840280400209D48806910
:104F500040F008009B4988619B48006820F07F4032
:104F6000994908600846006840F04C50086096482F
:104F70000C30006840F0C00093490C310860704765
:104F800010B59148006820F070408F4908600846CD
:104F9000006840F04050086001208C4908608C494E
:104FA000C1F898010A2000F036F90020874908600E
:104FB0000A2000F030F900208549C1F8980110BDA1
:104FC00010B58148006820F070407F4908600846AD
:104FD000006840F04050086000207C49091F0860CC
:104FE0007B49C1F89C010A2000F015F9012077499E
:104FF000091F08607649C1F89C010A2000F00BF9EE
:1050000010BD10B500247048006820F070406E4953
:1050100008600846006840F00040086001206B49C5
:1050200008600A2000F0F7F801206949C1F89801EA
:105030000A2000F0F0F807E0601CC4B2FA2C03DD8F
:10504000FFF7BEFF012010BD6048803800680028CF
:10505000F2D15E49091F086000BFF4E710B50020D7
:105060005A49091F08605848006820F070405649A6
:1050700008600846006840F040500860002054492D
:10508000C1F89C010A2000F0C6F801204F49091F11
:1050900008600A2000F0BFF800204D49C1F89801CF
:1050A00010BD10B500204949091F08604648006836
:1050B00020F07040444908600846006840F04050C5
:1050C000086001204249C1F89C010A2000F0A3F8C1
:1050D00001203E49091F08600A2000F09CF80020CA
:1050E0003B49C1F8980110BD70B5044636480068C8
:1050F00020F07040344908600846006840F0405095
:10510000086000203149091F0860002517E0E00908
:105110002E4908606006040E0A2000F07CF8012089
:105120002B49C1F898010A2000F075F800202749A2
:10513000091F08600A2000F06EF8681CC5B2082D2F
:10514000E5DB70BD70B5054600241F48006820F0FF
:1051500070401D4908600846006840F00040086043
:10516000002617E000201949091F08600A2000F0F6
:1051700052F801201649C1F898016006040E134840
:105180008038006808B1601CC4B20A2000F043F8FF
:10519000701CC6B2082EE5DB15B9FFF782FF01E0EF
:1051A000FFF75CFF204670BD70B50446FFF7CEFEEA
:1051B000FFF7E6FE2046FFF797FFFFF722FF0546C1
:1051C000284670BD00100240000C01409C81214225
:1051D0000080214210B54FF4C060FEF7ABFB10BD5C
:1051E0007047000010B56FF00400FEF7F2FB2E4888
:1051F00000682E49B0FBF1F02D4908700846007890
:1052000000EB4001C1EBC0104FF6FF7101EAC00096
:105210002849088010BD0146254A12784A434FF0BC
:10522000E0235A6100229A611A46126942F0010293
:105230001A6100BF4FF0E022106900F001021AB1BC
:1052400000F48032002AF5D04FF0E022126922F0FB
:1052500001024FF0E0231A6100229A617047014673
:10526000144A12884A434FF0E0235A6100229A619F
:105270001A46126942F001021A6100BF4FF0E022A3
:10528000106900F001021AB100F48032002AF5D052
:105290004FF0E022126922F001024FF0E0231A6180
:1052A00000229A61704700000004002000127A007A
:1052B00030040020320400200220174908800846EC
:1052C000008816490880704708B5012269461448CD
:1052D00000F054FCBDF800004FF6FF71884204D086
:1052E000BDF800000D49088001E0FFF7E5FF0B481D
:1052F00000884FF00051C86008BD10B5094800880B
:10530000052808DBFFF7E3FD00F0CEFC00F02AFEE5
:1053100000200449088010BDBC040020380400208F
:1053200000F800083A0400207FB504460D462146E7
:105330000220FEF7A8FA01212848FFF777FC4FF674
:10534000FF7000EA4500ADF8040048F69F40ADF854
:1053500000000020ADF80600ADF8020069461F48C5
:10536000FEF72EFE21461D48FFF786F92246012151
:105370001A48FFF79CF91D208DF80C0001208DF8CC
:105380000D0003208DF80E008DF80F4003A8FEF7E6
:10539000D6FA7FBD10B501211048FFF747FC4FF04A
:1053A00000500069401C4FF0005108610C48008813
:1053B000401C0B4908800B480078401C09490870C4
:1053C00010BD10B500210548FFF756F910BD10B506
:1053D00001210248FFF750F910BD00000004004011
:1053E0003A0400203C04002030B587B005460C4646
:1053F000FF208DF808008DF80900FE480088001293
:105400008DF80A00FB4800788DF80B0045F080000D
:105410008DF80C0000208DF80D0002208DF80E0094
:1054200020128DF80F00E0B28DF8100001AA0921BA
:1054300002A800F0C5FA9DF804008DF811009DF84F
:1054400005008DF812009DF80E000930C1B202A8C7
:1054500001F028F807B030BD10B50446E079022805
:1054600015D120790021FFF7BFFF6420FFF7F7FE79
:1054700000BFE148006800F4E060E0490843001D17
:10548000DD490860BFF3408F00BF00BFFEE7207911
:105490000221FFF7A9FF10BD10B50446D8480078D7
:1054A000B0B1607A012804D020790221FFF79CFF77
:1054B00010BD207AE17940EA0120CE49088001221E
:1054C000D04800F03BFB20790021FFF78DFF03E07F
:1054D00020790821FFF788FF00BFE9E710B58AB0FF
:1054E0000446202102A802F008F800200190FF20C5
:1054F0008DF808008DF80900BE48008800128DF86C
:105500000A00BC4800788DF80B00207940F080003C
:105510008DF80C0000208DF80D0003208DF80E0092
:1055200000208DF80F008DF81000E079B449087064
:10553000084600788DF811009DF80E00C11D01AAE3
:1055400002A800F03DFA9DF804109DF80E00C01D61
:1055500002AA11549DF805109DF80E000830115450
:105560009DF80E000930C1B202A800F09BFF0AB0FE
:1055700010BDF0B591B00446607B217B40EA012567
:105580003C2102A801F0B9FF00200190FF208DF816
:1055900008008DF809009748008800128DF80A006D
:1055A000944800788DF80B00207940F080008DF849
:1055B0000C00A81C000A8DF80D00A81CC0B28DF8C4
:1055C0000E0000208DF80F008DF810002E2D00DD4C
:1055D0002E25207A0006617A40EA0140A17A40EA4D
:1055E0000120E17A40EA0106E079E0B92A46314635
:1055F0000DF1110001F03CFF05F1090081B201AA93
:1056000002A800F0DDF99DF8041005F1090002AAD6
:1056100011549DF80510401C1154401CC1B202A841
:1056200000F040FF13E0E079012810D1A079617902
:1056300040EA0127781F87B22A4604F10C01304660
:1056400001F016FF20790021FFF7CEFE00BF11B058
:10565000F0BD70B598B0064634210BA801F04DFF9F
:10566000282101A801F049FF002000900025307A90
:10567000F17940EA0120C4B2FF208DF82C008DF8AA
:105680002D005C48008800128DF82E0059480078E3
:105690008DF82F0081208DF830001E2C0BDD0224A8
:1056A00000208DF831008DF832408DF83300042051
:1056B0008DF83400DAE020128DF831008DF8324098
:1056C00000208DF804008DF8050001208DF80600FB
:1056D0008DF8070040070069000E8DF808004FF0B4
:1056E00000500069000C8DF809004FF00050008A4E
:1056F000000A8DF80A004FF00050007C8DF80B0076
:1057000003208DF80C0000208DF80D003E48007835
:10571000D0B93D484078B8B93B488078A0B93A48FC
:10572000C07888B93848007970B93748407958B995
:105730003548807940B93448C07928B99DF80D00C2
:10574000401CC0B28DF80D003048007870B92F4869
:10575000407858B92D48807840B92C48C07828B98D
:105760009DF80D00401CC0B28DF80D00284800784F
:1057700070B92748407858B92548807840B92448FE
:10578000C07828B99DF80D00401CC0B28DF80D00FE
:105790001D4800788DF80E001B4840788DF80F00EA
:1057A000194880788DF810001748C0788DF81100DE
:1057B000154800798DF81200134840798DF81300D0
:1057C000114880798DF814000F48C0798DF81500C4
:1057D0000E4800788DF816000C4840788DF81700B8
:1057E0000A4880788DF818000848C0788DF81900AC
:1057F000084811E0380400200CED00E00000FA0534
:105800006C04002000F80008280400204204002056
:105810004C0400204604002000788DF81A006348EC
:1058200040788DF81B00614880788DF81C005F4837
:10583000C0788DF81D005E4800788DF81E005C4829
:1058400040788DF81F005A4880788DF8200058481D
:10585000C0788DF82100002506E001A8415DE81D13
:105860000BAA1154681CC5B2A542F6DBE11D6A46BD
:105870000BA800F0A5F89DF80010E01D0BAA11542C
:105880009DF80110401C1154401CC1B20BA800F03F
:1058900009FE18B070BD10B58CB0282102A801F027
:1058A0002CFE00244348007808B9012000E00020C5
:1058B00041490860282102A800F010FD00284CD0C2
:1058C0009DF80E009DF80D1040EA0124E01D81B204
:1058D00001AA02A800F074F89DF8041002AAE01DC5
:1058E000105C814239D19DF8051004F10800105C6C
:1058F000814232D19DF80B009DF80A1040EA012048
:105900002E490988884207D09DF80C00062824DB20
:105910009DF80C00082820DC9DF80C000A281AD2FB
:10592000DFE800F01905191909190D11191502A858
:10593000FFF78FFE10E002A8FFF71BFE0CE002A8A5
:10594000FFF7CCFD08E002A8FFF7A6FD04E002A8DF
:10595000FFF782FD00E000BF00BF0CB010BD30B506
:10596000034614460A460AB9012030BD03E012F886
:10597000010B03F8010B2000A4F10105ACB2F6D134
:1059800000BFF2E730B5034614460A460AB90120C3
:1059900030BD03E013F8010B02F8010B2000A4F165
:1059A0000105ACB2F6D100BFF2E7000046040020CA
:1059B0004C0400206C04002088812142380400201F
:1059C000F0B50B46FF24FF2509E010F8016B86EACD
:1059D0000401154E765C86EA0504144E755C1E00C3
:1059E000A3F10107BBB2F0D114705570F0BD30B512
:1059F00002460B46002010E012F8014B60400021E7
:105A000009E000F001041CB18C2484EA600000E08D
:105A100040104C1CE1B20829F3DB1C00A3F1010586
:105A2000ABB2E9D130BD00003888000838890008E1
:105A300008B501210420FDF719FF01210846FDF7F3
:105A400015FF4FF48070ADF8000010208DF80300B2
:105A500003208DF8020069463748FDF74BFC4FF4F0
:105A600080713548FDF7F3FC4FF40060ADF800009D
:105A700010208DF8030003208DF8020069462E489F
:105A8000FDF738FC4FF48050ADF8000003208DF88E
:105A9000020010208DF8030069462748FDF72AFC14
:105AA0004FF40050ADF8000069462348FDF722FC92
:105AB0004FF48040ADF8000069461F48FDF71AFC1E
:105AC0004FF480411C48FDF7C2FC4FF40040ADF894
:105AD000000069461848FDF70DFC4FF400411648D8
:105AE000FDF7B5FC0120ADF8000010208DF8030093
:105AF00069461148FDF7FEFB2020ADF8000010209C
:105B00008DF8030069460C48FDF7F4FB4020ADF822
:105B1000000010208DF8030069460748FDF7EAFBF6
:105B20008020ADF8000010208DF80300694602487F
:105B3000FDF7E0FB08BD0000000801402DE9F04141
:105B400005460E461746FDF796F83520FDF72EFB65
:105B50002846FDF7D5F8002407E036F8141005EBC9
:105B60004400FDF7D0F9601CC4B2BC42F5DB35201F
:105B7000FDF71CFBFDF78BF8BDE8F08110B503467F
:105B8000002005E033F8104021F81040441CE0B23A
:105B90009042F7DB10BD00002DE9F0470446FFF707
:105BA000D5F93220FFF737FBFFF7EAF93220FFF78C
:105BB00032FB5F20FFF798FAFFF723FA00284ED157
:105BC0003220FFF728FB0120FFF7BCFA7849087064
:105BD0006420FFF720FB0120FFF7B4FA74494870F6
:105BE0006420FFF718FB0120FFF7ACFA70498870BA
:105BF0006420FFF710FB0120FFF7A4FA6C49C8707E
:105C00006420FFF708FB0020FFF79CFA3220FFF723
:105C100002FBFFF7D5F93220FFF7FDFA6448407820
:105C2000FF2806D162488078FF2802D10020BDE815
:105C3000F0875F4880785E49497840EA012A5F2C06
:105C40000DD1504602F0DFFA07465A4A5A4B02F08D
:105C500029FB054602F082F881464846E7E700BF87
:105C6000E5E710B5FFF772F9FFF78AF98020FFF733
:105C70003BFAFE20FFF738FAFFF7A2F910BD10B586
:105C8000FFF77EF98020FFF72FFAFFF7BAF950B936
:105C9000E620FFF729FAFFF7B4F920B98320FFF7D0
:105CA00023FAFFF7AEF910BD2DE9FE430020029064
:105CB0000024019000905F20FFF76EFF029000210A
:105CC000029802F00FFD57D100BF694601A801F00C
:105CD0000EF884B2002C3FD1BDF8040002F093FA14
:105CE00005460022354B02F01FF9074602F036F850
:105CF0000290029802F0BEFC05462E4A2E4B02F09E
:105D000095FA01D22E4802909DF808002D4908709E
:105D10009DF8090048709DF80A0088709DF80B00F6
:105D2000C8704FF000510298C861BDF8000002F041
:105D300025FD02909DF80800234908709DF8090090
:105D400048709DF80A0088709DF80B00C8704FF0ED
:105D500000510298086229E000201A490870487032
:105D60008870C8701849087048708870C8704FF003
:105D70000051C861086219E09DF8080011490870D7
:105D80009DF8090048709DF80A0088709DF80B0086
:105D9000C8704FF000510298C86100200A4908708D
:105DA00048708870C8704FF000510862BDE8FE83EB
:105DB0003E0400209A9999999999B93F00408F40E3
:105DC000CDCCCC3D420400204604002010B586B066
:105DD000044601210820FDF749FD01218804FDF753
:105DE00052FD4FF48060ADF8140018208DF81700B4
:105DF00003208DF8160005A9A248FDF77BFA4FF4A1
:105E00000060ADF8140048208DF8170005A99D48E2
:105E1000FDF770FA01940020ADF80800ADF80A0013
:105E2000ADF80C00ADF810000C20ADF80E0001A983
:105E30009548FDF730FE01219348FDF7B8FE012299
:105E400040F225519048FDF7BEFE012240F2244168
:105E50008D48FDF7B8FE40218B48FDF790FF2720C5
:105E60008DF8000000208DF8010003208DF802005D
:105E700001208DF803006846FDF761FD06B010BDF6
:105E800070B505460E4600240CE0295D7F48FDF7FD
:105E9000FBFE00BF80217D48FDF764FF0028F9D09C
:105EA000601CC4B2B442F0DB00BF40217748FDF76C
:105EB00059FF0028F9D000207549087070BD2DE900
:105EC000F04106460D4672480778002028700A20E7
:105ED000FFF7C5F96E480078B84214D16C480078D5
:105EE00088B101206B490870002404E06A48005D15
:105EF0003055601CC4B2BC42F8DB6548007828709D
:105F0000002063490870BDE8F08110B540215E486B
:105F1000FDF735FF40F225515B48FDF739FF80B1B1
:105F200000205E4908705848FDF7B2FEC4B25C48D4
:105F30000078401C5A49087008460078401E5949AC
:105F40000C5440F224415048FDF722FF48B1012093
:105F5000524908704C480088C4B24B48001D008864
:105F6000C4B210BD2DE9FF414FA103C9CDE9020123
:105F70000020019000904A480078642847DB474899
:105F80000078002859D0002438E04648005D4228B7
:105F900033D14449601C085C4D282ED1E01C085CBC
:105FA0001C282AD100204249087048708870C870A7
:105FB0003C4AE11D525C3B4BA11D595C42EA012069
:105FC00002F00AF9074600223A4B01F0ADFF054600
:105FD00001F0C4FE00909DF80000354908709DF85E
:105FE000010048709DF8020088709DF80300C87099
:105FF0004FF000510098486202E0641C642CC4DB3E
:1060000000BF0020264908702B49087015E02A4877
:106010000078401C284908700846007805280CDBE9
:1060200008460078401E087000202149087048701A
:106030008870C8704FF000514862BDE8FF811FB5FD
:10604000044622461DA101A801F04AF86A461DA196
:1060500001A801F049F9009804B010BD2DE9C04134
:1060600045EA042086B2F0B2FFF7E9FF804602F06D
:106070006DFB07463846BDE8C08110B5FFF7EEFF5F
:10608000044610BD000C01400048004000440040A0
:106090005404002055040020480500205804002026
:1060A00057040020E404002011020B01E10000006D
:1060B0004C04002000408F405904002025303278E5
:1060C0000000000025780000014600BF704700BFB7
:1060D000F84A128802F04002002AF9D0C2B2F54B09
:1060E0001B1D1A80704710B586B00446012104209C
:1060F000FDF7BCFB01218803FDF7B8FBED48FDF778
:1061000087FC4FF48070ADF8140004208DF8170060
:1061100003208DF8160005A9E748FDF7EBF84FF4CA
:106120008071E548FDF793F94FF40060ADF8140075
:1061300010208DF8170003208DF8160005A9DE4801
:10614000FDF7D8F84FF40061DB48FDF782F94FF412
:106150008050ADF8140010208DF8170003208DF842
:10616000160005A9D448FDF7C5F84FF48051D24870
:10617000FDF76FF94FF40070ADF8140002208DF8B0
:10618000160018208DF8170005A9CB48FDF7B2F8C6
:106190004FF48060ADF8140004208DF8170005A9B5
:1061A000C548FDF7A7F825208DF8000000208DF8E0
:1061B00001008DF8020001208DF803006846FDF70C
:1061C000BEFB01940020ADF80800ADF80A00ADF860
:1061D0000C00ADF810000C20ADF80E000021B54801
:1061E000FDF7E5FCB348FDF713FC01A9B148FDF745
:1061F00052FC012240F22551AE48FDF7E4FC012299
:1062000040F22441AB48FDF7DEFC0121A948FDF72F
:10621000CEFC06B010BDA94800887047A84909887F
:10622000C82904DAA749A64A1288885C05E000213B
:10623000A34A1180A3491288885C0021A24A1160F8
:10624000A04A9F4B1B88D1549C49098821B19B4986
:106250000988491E994A118001219B4A1160984979
:106260000988491C964A1180704795490988C829B0
:1062700004DA9449924A1288885C05E00021904A29
:10628000118090491288885C70478D4A1278521CA0
:10629000D1B2C82902DA8B4A505C02E00021894A57
:1062A000505C704770B505460E4600248348008850
:1062B00038B100BF03E000202855601C84B2B4420E
:1062C000F9DB002404E0FFF7A9FF2855601C84B225
:1062D0007A4800880028F6D1204670BD2DE9F041AB
:1062E00005460E4600247548008838B100BF03E01B
:1062F00000202855601C84B2B442F9DB002400BFA2
:10630000724800780028FBD06C48008800284AD0EA
:106310000024002715E0FFF7A8FFFF2804D1FFF7AE
:10632000B4FFFF2800D10EE0FFF79FFFF02804D153
:10633000FFF7ABFFFE2800D105E0FFF76FFF781CE9
:1063400087B2C82FE7DB00BF002419E0FFF766FF24
:106350002855601C84B2B44200D115E0FFF785FFD8
:10636000FF2804D1FFF791FFFF2800D10CE0FFF7D1
:106370007CFFFE2804D1FFF788FFF02800D103E05E
:106380004E4800880028E1D100BF4C48008850B931
:1063900000204B4908804C4908604D490880012085
:1063A0004C49C1F894012046BDE8F08110B540F297
:1063B00025514048FDF7ECFC18B300204349087014
:1063C0003E480088C82817DA3A48001D00883D4931
:1063D0003F4A1288885439480088401C3749088051
:1063E0003B480088401C3A49088008460088C82875
:1063F00007DB0020088004E040F225512D48FDF71E
:10640000BEFC40F224412B48FDF7C2FC48B10120FC
:106410002E49087027480088C4B22648001D00880D
:10642000C4B240F227712348FDF7B2FC20B140F21C
:1064300027712048FDF7A3FC28211E48FDF7D2FC58
:1064400040F227711B48FDF7CDFC40F22661194848
:10645000FDF7C8FC40F225511648FDF7C3FC40F299
:1064600024411448FDF7BEFC40F646011148FDF7F3
:10647000B9FC40F66A110F48FDF7B4FC60210D48E5
:10648000FDF7B0FC4FF458710A48FDF7ABFC4FF430
:1064900018710848FDF7A6FC4FF4B0710548FDF7E8
:1064A000A1FC10BD70B504460D464FF480569DB951
:1064B000002070BD00380140000801406204002047
:1064C0005C04002048060020940127426404002058
:1064D0005E0400200000274216B94FF6FF70E8E77F
:1064E0000BE000BF80210848FDF73CFC0028F9D0F4
:1064F00020780549091D0880641C2800A5F10101C8
:10650000CDB2EED100BFD4E70038014008B501217B
:106510000820FDF7ABF90420ADF8000010208DF83D
:10652000030003208DF8020069460448FCF7E2FEF0
:1065300004210248FCF78BFF08BD0000000C01405D
:106540001FB501210420FDF791F901210846FDF74F
:106550008DF94FF40040ADF8000048208DF803009D
:1065600069462148FCF7C6FE0F210020FCF7D8FF42
:106570004FF40040029000208DF80C000C208DF8A4
:106580000D0001208DF80E0002A8FEF761FB282007
:106590008DF8040002208DF8050003208DF8060018
:1065A00001208DF8070001A8FDF7C9F91FBD10B53E
:1065B0000A20FEF754FE4FF40040FEF7AFFB88B10F
:1065C0004FF400410848FCF728FF38B90748007825
:1065D00008B9012000E00020044908704FF4004091
:1065E000FEF798FB10BD0000000801406C0400207D
:1065F00070B505460C4645F25550FEF7A9FB2846F6
:10660000FEF7A9FB2046FEF7A9FBFEF7AAFBFEF763
:10661000ADFB70BD10B5FEF7A4FB10BD10B54FF477
:106620008061C80400F069FF06A04FF000510068C7
:10663000086005A14FF000500968416001A1096898
:10664000816010BD636A7100312E310030B50246A1
:106650000B46FF20002113E0555C684008240BE046
:1066600000F0800525B1312585EA4005E8B201E05A
:106670004506280E651EECB2002CF1DC4D1CA9B2BB
:106680009942E9DB30BD70B505460E4614463146E9
:106690002846FFF7DBFFA04202D04FF0FF3070BD6D
:1066A0000020FCE708B501210420FDF7DFF80C20ED
:1066B000ADF8000014208DF8030003208DF80200CF
:1066C00069469748FCF716FE0C219548FCF7BFFE7B
:1066D00008BD08B56846FCF798FE0820ADF8000034
:1066E00004208DF8030003208DF8020069468C48D1
:1066F000FCF700FE08BD08B56846FCF786FE0820DA
:10670000ADF8000014208DF8030003208DF802007E
:1067100069468348FCF7EEFD08BD10B508218048A6
:10672000FCF795FE10BD10B508217D48FCF791FEE1
:1067300010BD10B508217A48FCF76FFE10BD10B5EA
:1067400004217748FCF783FE10BD10B5042174487E
:10675000FCF77FFE10BD10B504462046FEF75BFD3A
:1067600010BD70B50546FFF7C6FF072415E0FFF71B
:10677000ECFF45FA04F000F0010010B1FFF7CDFF87
:1067800001E0FFF7D0FF3220FFF7E5FFFFF7D7FF6B
:106790003220FFF7E0FF601E44B2002CE7DAFFF77B
:1067A000D4FFFFF7BAFF3220FFF7D5FFFFF791FFC5
:1067B000FFF7C5FF3220FFF7CEFFFFF7BAFF08B1A2
:1067C000012000E000200646FFF7BFFF304670BD05
:1067D00070B505460026FFF7A0FFFFF77AFF0724F4
:1067E00014E03220FFF7B7FFFFF7A9FF3220FFF7D1
:1067F000B2FFFFF79EFF08B1012000E00020A0409B
:106800003043C6B2FFF7A1FF601E44B2002CE8DAA5
:10681000FFF771FF3220FFF79EFF15B1FFF783FFEF
:1068200001E0FFF77AFF3220FFF795FFFFF787FFC0
:106830003220FFF790FFFFF788FFFFF76EFF30462B
:1068400070BD10B5FFF757FFFFF76DFF3220FFF760
:1068500082FFFFF77AFF3220FFF77DFF10BD10B5F2
:10686000FFF749FFFFF75FFF3220FFF774FFFFF7E5
:1068700066FF3220FFF76FFFFFF74FFF3220FFF771
:106880006AFF10BD2DE9F04106460F469046FFF71E
:10689000D8FF7106080EFFF764FF054625B1FFF724
:1068A000DEFF2846BDE8F081002409E0385DFFF7EF
:1068B00058FF054615B1FFF7D2FF03E0601C84B214
:1068C0004445F3DB00BFFFF7CAFF2846EAE72DE99E
:1068D000F04105460E461746FFF7B3FF012101EBD5
:1068E0004501C8B2FFF73DFF8046B8F1000F04D064
:1068F000FFF7B5FF4046BDE8F081002405E0012028
:10690000FFF766FF3055601C84B2BC42F7DBFFF72F
:10691000A6FF4046EFE710B5FFF7C4FE10BD00002C
:10692000000801402DE9FE4F0746884608EB480065
:106930001FFA80F96D464A4629465820FFF7C7FFDF
:106940008246BAF1000F03D04FF0FF30BDE8FE8F52
:106950000024002614E0A11C6A5C28190221FFF71C
:1069600092FE401C10B94FF0FF30EFE7285DB8559C
:10697000601C295C701C3954E01C84B2B01C86B2C7
:106980004C45E8DB0020E1E770B5044602222146D1
:106990005820FFF777FF054615B14FF0FF3070BD67
:1069A0000020FCE72DE9F05F0546B5F80890CB46DE
:1069B0004FEA4B0000F03DFB0746002406E0F84894
:1069C00030F8140027F81400601C04B24C45F6DBC4
:1069D0002889401E04B2002620E02889001B401EA2
:1069E000696851F8208037F81400001217F8141065
:1069F00040EA01201FFA80FAD8F8000038B150466A
:106A0000D8F800108847E64921F8160002E0E4486B
:106A100020F816A0601E04B2701C06B2002CDCDA4E
:106A2000384600F035FBBDE8F09F70B50546DC4800
:106A30001C380078012810D12989D948FFF772FF46
:106A4000044614B14FF0FF3070BD2846FFF7AAFF8F
:106A50000020D3491C390870F6E74FF0FF30F3E708
:106A60002DE9F04107460C4615461E463846FFF70D
:106A70008BFF401C18B94FF0FF30BDE8F081204675
:106A8000FFF769FE31462846FFF74CFFF5E770B582
:106A900004462068451D04F10C00FFF775FF401CFB
:106AA00010B94FF0FF3070BD2846FFF754FE208923
:106AB000002807DD0120BA491C3908702046FFF77D
:106AC000B4FFF0E70020EEE70246002300210BE0D0
:106AD000B3481C388069006850F82130987A904299
:106AE00000D107E0481CC1B2AD481C3880698088DD
:106AF0008842EDDC00BFAA481C3880698088884243
:106B000001D1002070471846FCE770B505462846BD
:106B1000FFF7DAFF044614B94FF0FF3070BD20468E
:106B2000FFF7B5FF401C10B94FF0FF30F6E700202B
:106B3000F4E72DE9F84F04460F4690469A460025A3
:106B40003A7829466D1C62547A7829466D1C625445
:106B5000002622E038F81600001218F8161040EA55
:106B6000012080B2009002216846FFF76FFD814648
:106B7000BDF80000C2B22846691CCDB22254BDF84F
:106B80000000020A2846691CCDB222542846691C1E
:106B9000CDB204F80090701CC6B25645DADB284628
:106BA000BDE8F88FF0B504464FF0FF302688361266
:106BB000277846EA0726B3B2794E1C3E3382794ED7
:106BC000774F1C3FBE61002530E0774E366856F89F
:106BD0002510002224E08E6836F8126006F4704614
:106BE00003F47047BE4219D103F48076B6B98E68BB
:106BF00016F8126006F0E00603F0E007BE420DD181
:106C00008E6816F8126006F01F0603F01F07BE42DA
:106C100004DC634E1C3EB161002004E0561C32B21D
:106C20008E899642D7DC00BF6E1C35B25E4EB688A8
:106C3000AE42CADCF0BD38B50446002020805B4877
:106C4000FFF7A2FE10B14FF0FF3038BD5848FFF7F4
:106C500082FD01216846FFF765FE10B14FF0FF305D
:106C6000F3E7BDF800000012BDF8001040EA012073
:106C700020802088B0F5544F01D10020E5E74FF087
:106C8000FF30E2E710B50120FFF71EFF044614B9FC
:106C90004FF0FF3010BD04F10C00FFF775FE401CF3
:106CA00010B94FF0FF30F5E701203D491C3908705D
:106CB0000020EFE770B504460D460120FFF704FF02
:106CC000064616B94FF0FF3070BD3046FFF7ADFEF7
:106CD000401C10B94FF0FF30F6E731481C38808B6C
:106CE00020802F481C38C08B28800020ECE770B52E
:106CF00004460D460120FFF708FF401C10B94FF075
:106D0000FF3070BD26481C38808B208024481C38FA
:106D1000C08B28800020F4E710B5FFF7B3FF10BD4B
:106D200038B5044669462046FFF7C4FF38BD38B57C
:106D3000044669462046FFF7DAFF38BD10B5FFF775
:106D4000A1FF10BD38B5044621466846FFF7B2FFE3
:106D500038BD38B5044621466846FFF7C8FF38BD40
:106D600070B504460D4613480078FFF7CEFE401C70
:106D700010B94FF0FF3070BD09481C38808B20805F
:106D800007481C38C08B28800020F4E710B509485C
:106D90000078FFF799FE044674B94FF0FF3010BD3C
:106DA0002C070020408A0008708C00083C8A0008EC
:106DB000605B0300508A000804F10C00FFF7E4FD5B
:106DC000401C10B94FF0FF30E9E7012091490870ED
:106DD0000020E4E770B504460D468F480078FFF7C1
:106DE00073FE064616B94FF0FF3070BD3046FFF710
:106DF0001CFE401C10B94FF0FF30F6E78548808B31
:106E000020808448C08B28800020EEE770B50446BF
:106E10000220FFF77AFE0546681C10B94FF0FF30DC
:106E200070BD7C48808B20807A48C08B6080206851
:106E300010B94FF0FF30F3E70020F1E731B582B031
:106E40000825029810B94FF0FF303EBD0320FFF730
:106E50003BFE044614B94FF0FF30F6E7022302AAC6
:106E600004F10C016846FFF764FE082269465820C9
:106E7000FFF708FD10B14FF0FF30E6E70020E4E730
:106E8000FEB5054605266348007C00F0E0000128B9
:106E900005D16048007C00F01F00002802DA4FF0A6
:106EA000FF30FEBD5D480078FFF70EFE044614B9C2
:106EB0004FF0FF30F5E7B5F57A3F02D94FF0FF30DC
:106EC000EFE74FF48070A5FB001244F28913002015
:106ED000A1FB037C02FB03C201FB0020010241EA8B
:106EE000176080B20290012302AA04F10C016846E7
:106EF000FFF71FFE052269465820FFF7C3FC10B1BB
:106F00004FF0FF30CDE70020CBE745A07047582079
:106F1000704702463F48007C10803E48008A000BC4
:106F200008700020704701463A48C2688068C1E98D
:106F300000020020704710B50020FFF7E6FD10BDED
:106F40002DE9F041334C1C34002032490870FFF722
:106F5000E2FC022322464FF4FA713348FFF780FD2A
:106F60000546681C10B92846BDE8F08121792068E3
:106F7000000C40EA0140C0F3072120790304226895
:106F800043EA124041EA002082B22088C0F3072081
:106F9000217840EA012042EA004000226168090CA1
:106FA00041EA0241C1F307236168090C41EA024149
:106FB00043EA01218EB2A188C1F30723217943EA74
:106FC000012146EA014100231B400A4340EA030134
:106FD000100C40EA0140090C0E4AC2E902010123EB
:106FE0001C324FF47A711148FFF73AFD0546681CD0
:106FF00010B94FF0FF30B7E706481C30FFF7D2FD5D
:107000000546681C10B94FF0FF30ADE7FFF793FF5E
:10701000AAE7000010070020508A0008518A0008E3
:10702000332E302E30000000388A00083A8A0008DB
:10703000704770B5064600F08BFA056806F10B0044
:1070400020F00704B4429CBF002070BD2B466A6844
:10705000BAB11068A04210D304F1080188423CBFC5
:107060005068586007D35168101941601168091BB6
:10707000016058601460101D70BD13465268002AEC
:10708000E7D12146284600F06BFA0028DED170BD1A
:1070900070B50446051F00F05BFA0068002C14BFB1
:1070A000446870BD002C18BFAC423CBF20466468E9
:1070B000F8D301680A18AA4218BF456003D12A68AC
:1070C00005461144016028684119A1421CBF6C604B
:1070D00070BD6168696021680844286070BD000067
:1070E0000FB41CB5074B06AA7B446946009005986F
:1070F00000F0DFFA0020694600F0EEFA1CBC5DF8F3
:1071000014FB0000ED05000070B5044685690068B9
:10711000C10601D5302600E02026C00707D070BD8B
:10712000D4E9012130469047206A401C20626D1E40
:10713000F6D570BD70B5044685690078C00707D1E3
:1071400070BDD4E9012120209047206A401C2062B4
:107150006D1EF6D570BD000070B504460D46214683
:107160001068AFF300802188090502D50F4A7A44E0
:1071700002E00E4A7A440E32002104F1240305E0B5
:1071800000F00F060009965D5E54491C0028F7D1F7
:1071900020780023000704D5702D02D009B1022306
:1071A00011322046BDE8704000F024BA061B0000F2
:1071B0002DE9F05F894604464FF0000ADFF824B15C
:1071C000FB44C0F820A02046E168884700287DD015
:1071D000252806D0D4E901219047206A401C20626E
:1071E000F1E700255F462046E168884720280646EB
:1071F00007DB312E05D2B81910F8200C08B1054371
:10720000F1E7A80701D525F00405C4F81CA0002764
:10721000C4F818A02A2E09D0304600F081FD38B3FA
:1072200004EB8708303EC8F8186019E059F8041BD1
:10723000204604EB87029161E1688847012F0646EA
:1072400018D1E069002820DA25F020051DE0D8F8E3
:10725000180000EB800006EB40003038C8F818003A
:107260002046E1688847064600F05AFD0028EED126
:10727000012F0AD02E2E08D12046E16888477F1CB6
:107280000646022F45F02005C4DBA069002803DA7A
:10729000404245F00105A061E80701D025F0100546
:1072A000A6B1A6F14100192802D8203645F40065A0
:1072B0004A463146204625604D46FBF751FB60B1FA
:1072C000012807D0ED1D25F0070000E007E000F1E0
:1072D000080978E705F1040975E730467AE7206A7E
:1072E000BDE8F09FDC1A00000FB400B58DB010A906
:1072F000099000910B904FF0FF300A9000200C9005
:10730000064878440690064878446A4607900F99E4
:1073100009A800F0FBF90DB05DF814FB270400008C
:107320003F0400002DE9FF5F1D464FF0FF3B9146F3
:107330004FF000085F46D5E90146A96901987F1C16
:107340008847296A824688470028F6D1BAF1FF3F6C
:107350000CD0002E24F4C06419DD600614D5BAF1F7
:107360002B0F09D0BAF12D0F0ED103E0584604B00F
:10737000BDE8F09F44F48064A96901987F1C8847A8
:10738000761E8246002E02DDBAF1300F03D0B9F12D
:10739000000F26D032E0A969761E01987F1C44F4C4
:1073A00000748847002E824605DDBAF1780F06D0BA
:1073B000BAF1580F03D0B9F1000F10D01EE0B9F1A7
:1073C000000F02D0B9F1100F18D1A969761E0198EB
:1073D0007F1C24F4007488478246102002E00820B5
:1073E00000E00A20814609E0A96908FB0908761E29
:1073F00001987F1C44F4007488478246002E05DD06
:107400004946504600F06DF90028EDDAE969019827
:107410008847A00502D46FF00100A8E7E00725D156
:10742000600613D5600502D5C8F1000000E04046B3
:1074300029680A1D2A600968220501D5087015E02F
:10744000220701D5088011E008600FE02868011DBF
:1074500029600068210502D580F8008006E0210738
:1074600002D5A0F8008001E0C0F8008038467EE731
:10747000032A40F2308010F0030C00F0158011F860
:10748000013BBCF1020F624498BF11F801CB00F838
:10749000013B38BF11F8013BA2F1040298BF00F88C
:1074A00001CB38BF00F8013B11F0030300F05E810F
:1074B000083AC0F0088051F8043B083A51F804CB70
:1074C000A0E80810F5E7121D5CBF51F8043B40F836
:1074D000043BAFF30080D20724BF11F8013B11F841
:1074E00001CB48BF11F8012B24BF00F8013B00F885
:1074F00001CB48BF00F8012B70474FF0000200B5E8
:10750000134694469646203922BFA0E80C50A0E8C6
:107510000C50B1F12001BFF4F7AF090728BFA0E874
:107520000C5048BF0CC05DF804EB890028BF40F840
:10753000042B08BF704748BF20F8022B11F0804F82
:1075400018BF00F8012B70477047704770477047AD
:1075500000487047480700207047704770477047E1
:1075600038B504460A4600206946AFF3008000287B
:1075700008BF38BD02460099204600F02DF90120D1
:1075800038BD012000F006BBF8B5AFF3008005461A
:1075900000200C46102000BF0646A819A0420DD9B5
:1075A000324669460020AFF30080070008BF00F0B4
:1075B000F1FA0098A04218BF0546C419FFF7C8FFAA
:1075C00005600746F01D20F007004619284600F028
:1075D0000AF8B44208BFF8BDA21B31463868BDE8BE
:1075E000F84000F0F9B800210160C0E901107047CF
:1075F000102070472DE9F0470D4699469246044603
:1076000000F124080168880604D5E06921F0100122
:10761000216000E00120A84201DD471B00E00027B7
:10762000A1697A1902EB0900081AA0612078C00646
:1076300002D42046FFF768FD002608E0D4E90121C6
:107640001AF806009047206A401C761C20624E45BE
:10765000F4DB2078C0060AD52046FFF755FD06E08A
:10766000D4E9012130209047206A401C2062381E56
:10767000A7F10107F4DC07E0D4E9012118F80500BF
:107680009047206A401C2062281EA5F10105F3DC0A
:107690002046FFF74FFD2078000602D50220BDE806
:1076A000F0870120FBE7000001694A1C02610878AD
:1076B000704700B58FB0CDE9013100210591054932
:1076C0007944CDE9031011466846FFF771FD0FB00C
:1076D00000BD0000E5FFFFFF0A6802F8010B0A6029
:1076E00070473A2800D2303820F02002412A01D3D6
:1076F000A2F13700884201D34FF0FF3070470000FD
:10770000026811441378016018467047D16005493A
:107710007944516104497944116200211161114693
:1077200000F07EB8EDFFFFFFF3000000426842B1B9
:10773000016811F8013B23B1521EC0E9001218463E
:1077400070470121C160881E704742685AB1C36802
:10775000016843B983688B4205D0491E521CC0E9B9
:107760000012002070474FF0FF30704710B5203AEC
:10777000C0F00B80B1E81850203AA0E81850B1E8EA
:107780001850A0E81850BFF4F5AF5FEA027C24BFA0
:10779000B1E81850A0E8185044BF18C918C0BDE897
:1077A00010405FEA827C24BF51F8043B40F8043B60
:1077B00008BF7047D20728BF31F8023B48BF11F815
:1077C000012B28BF20F8023B48BF00F8012B70476F
:1077D0000048704740070020034640688C46002858
:1077E00018BF88423CBF03464068F8D31868184465
:1077F000884207D00CF1030020F00700001D411A59
:10780000521A0146081D0A60FFF742BC10B5044633
:1078100000F0ECF90068005D00F0010010BD000010
:107820002DE9F34F4FF0000A0C4656468DB001206B
:107830000C9001F10C000B9062690B9801219047AC
:1078400005002DD0252D2CD0216A8847C0B1626952
:107850000B9801219047216A88470028F7D1626977
:10786000411E0B98904700E0761CA1690D9888474F
:10787000216A88470028F7D1E1690D988847DBE73E
:10788000A1690D988847A842074601D1761CD3E725
:10789000E1690D9888477F1C02D1BAF1000F6FD0C3
:1078A0006BE162690B9800273D46394690472A28CC
:1078B00004D162690B98012190470125DFF8D0823D
:1078C00062690B9801219047A0F130010A290AD280
:1078D0004745E5DC07EB870100EB4107303FDFD48C
:1078E00045F01005ECE7E90601D46FF000476C287D
:1078F0000AD04C2814D0682815D06A280DD07428D6
:107900001CD07A281AD01DE062690B98012190479B
:107910006C2802D045F0040514E045F002050DE0A6
:1079200045F020050AE062690B980121904768281C
:1079300002D045F0080505E045F4006562690B9842
:1079400001219047C4E9015765283DD019DC58282A
:107950007AD00CDC452837D004DC252826D04128F5
:107960009ED131E046282FD0472899D12CE05B28C2
:1079700077D0612828D063287CD0642823D15AE0AE
:10798000F6E06F2848D008DC66281DD067281BD099
:10799000692821D06E2816D127E0702845D0732899
:1079A00068D0752847D078280DD14DE0A1690D9891
:1079B0008847252805463FF469AFE1690D98884757
:1079C0006D1C3FF46AAFD8E00D9923466A466FF00C
:1079D0000100AFF30080C5E045F0400023464FF0C2
:1079E00000026060A80736D43EE0E8077FF447AFA6
:1079F0002068011D21600068290501D506701BE77C
:107A0000290701D5068017E7A90703D5F117C0E9B3
:107A1000006111E706600FE745F0400023464FF094
:107A200008026060A80716D41EE040F60E0125EAA1
:107A30000100606016E045F0400023464FF00A0266
:107A40006060A80707D40FE045F040006060A80719
:107A500008D5234610220D996FF00100AFF3008086
:107A600080E007E0102223460D996FF00100FFF738
:107A700059FC77E04FF0000963284F46C8464B4653
:107A8000CB4602D05B2806D038E0E80601D40120BE
:107A9000A060012732E06269D4F80CB00B98012194
:107AA00090475E2807D14FF0010949466269D4F832
:107AB0000CB00B989047216939B900210A4603ABF5
:107AC00043F82120491C0829FADBD8B3216949B3BE
:107AD00008F1010862690B98012190475D28F4D1F3
:107AE000B9F1000F09D0002003A951F82020D2439A
:107AF00041F82020401C0828F7DB03AB2069002850
:107B000020794FEA40701ED05B462246CDF80080B7
:107B1000CDE901970D9900286FF0010020DAAFF34D
:107B200000801FE0C11703AA00EBD1614B1121F0C7
:107B30001F0102EB8302411A1368012088400343AE
:107B40001360C7E719E00D99224600286FF0010085
:107B5000009702DAAFF3008004E0AFF3008001E0A9
:107B6000AFF3008000280ADA401C06D10C9820B13F
:107B70004FF0FF300FB0BDE8F08F5046FAE7E9074D
:107B800001D10AF1010A064400200C9054E60000DD
:107B9000CCCCCC0C10B500F03DF8BDE8104000F0A6
:107BA00033B87546FFF714FEAE46050069465346E6
:107BB00020F00700854618B020B5FBF729FBBDE88B
:107BC00020404FF000064FF000074FF000084FF044
:107BD000000B21F00701AC46ACE8C009ACE8C009D5
:107BE000ACE8C009ACE8C0098D46704710B500F09C
:107BF00039F8001D10BD00BF390100000446AFF385
:107C000000802046FAF7CBFE002801D0FEF75CBAD0
:107C10007047000010B5012805D0002103A000F036
:107C200025F8012010BD09A1F8E70000534947528B
:107C3000544D454D3A204F7574206F66206865613C
:107C400070206D656D6F7279000000003A20486504
:107C50006170206D656D6F727920636F72727570DF
:107C600074656400004870476007002070B50546E1
:107C70000C460A2000E06D1CFDF7B2FA35B12878F9
:107C80000028F8D102E0641CFDF7AAFA14B12078AC
:107C90000028F8D1BDE870400A20FDF7A1BA000025
:107CA0004FF0013C50F8042B51F8043B9A4221D18B
:107CB000A2EB0C03934313EACC1317D150F8042B17
:107CC00051F8043B9A4215D1A2EB0C03934313EAFB
:107CD000CC130BD150F8042B51F8043B9A4209D134
:107CE000A2EB0C03934313EACC13DBD04FF000005C
:107CF000704700BFD01A01BAB1FA81F101F0180142
:107D000022FA01F0CB40C1F12001DBB2C0B2C01AAF
:107D10002CFA01F3D11A914311EAC311E6D170474D
:107D200030380A2801D20120704700207047000037
:107D300010B500290AD00878002807D005487844F3
:107D4000FFF7AEFF002801D0002010BD02487844A4
:107D500010BD0000960F00008E0F000021F00042C1
:107D6000A2F16052B2F5801F01F0004328BFD2F1AA
:107D70007F6C0BD95FEA001C43EAC20242EB5070F1
:107D800018BF704728BF20F001007047B2F5801F70
:107D9000BCBF184670474FEA410C1CF5001F02D2C9
:107DA000084600F044BD70B500F026FB00000089D5
:107DB000FFF7F6BF4FF00040A0F5800070470000CD
:107DC00010B591EA030F48BF83F0004300F17083C0
:107DD000841A71EB030C05D2121943EB0C03001B40
:107DE00061EB0C01DFF824E14FEA1154A4EB135CC2
:107DF0001EEA430F18BF9EEA445F73D023EA0E03C6
:107E0000DCF1200E21EA045143F4801332D322FA2C
:107E10000CFE10EB0E0023FA0CFE41EB0E01CCF130
:107E2000200E03FA0EFE10EB0E0051F10001B1F529
:107E3000801FCCF1200E32D201EB045112FA0EF267
:107E4000BDE8104058BF7047401C38BF5FEA42028F
:107E500018BF7047002814BF20F0010041F1000155
:107E60004FEA410313F5001F38BF7047A1F1C0412D
:107E700000F010BB012A43EB0302ACF1200CDCF153
:107E80001F0E32BF4FF0000E23FA0CF310EB03006D
:107E900041EB0451B4EB115FD0D0A1EB045101F5DB
:107EA000801149085FEA300001EB04510ED350F114
:107EB000000038BF12FA0EFE08D1BDE81040C9E735
:107EC000401C38BF5FEA4202CAD1C3E7BDE8104098
:107ED0004FEA410313F5001F38BF7047A1F1C041BD
:107EE00000F0D8BA9EEA445F08D011EA5E0FBDE800
:107EF000104004BF01F0004100207047BDE8104071
:107F000070B500F079FA00BF64FBBE3E0000E0FFF0
:107F1000491058BFC1F140415B1058BFC3F1404305
:107F20008B42EFF3008070472DE9C04130B4DFF899
:107F3000A0C23CEA111418BF3CEA131400F0EC8014
:107F400081EA03051CEA111444EAD57418BF1CEA3F
:107F5000131500F0C780A4EB05044FF0004545EA77
:107F6000C12145EAC32341EA505143EA525304F187
:107F70007F74994204F500344FEAC0204FEAC222D0
:107F800008BF904200F09C804FEA13650FF2401644
:107F9000765D4FEA134506FB05F7C7F1807706FBD0
:107FA00007F74FEAD737A7FB03687642C8F5803852
:107FB000A7FB06CE38BFA8F1010807FB08E64FF083
:107FC000000EA6FB028CE6FB03CEDCF1000CCEF12A
:107FD000004E38BFAEF1010EA6FB0C584FF0000763
:107FE0004FF00005E6FB0E87A1FB08C6A0FB07CEFD
:107FF00016EB0E0645F10005E1FB076515F1E04EB5
:108000007EBFA4F580345FEA46066D4116F1800715
:1080100045F100054FEA17274FEA066647EA05676C
:10802000A6F1DE46B6F1805F4FEA15251FD9384626
:1080300024F0010C05EBC471BCF1FE6F01EB0C11D7
:1080400002D8F0BCBDE8008124425CBF01F5801E6F
:108050009EEAC47F02D4F0BCBDE80081244238D43B
:10806000F0BCA1F1C041BDE8004100F013BA4FEAF5
:10807000D22242EA43524FEAD323A7FB02864FEAB9
:10808000D02040EA415007FB03661EEA0E0F4FEA7C
:10809000D12105FB026658BFA6EB0056B6EB005691
:1080A0004FEA520E4EEAC37E18EB0E0E56EB530EFD
:1080B000BDD518EB02085E417F1C55F10005B6E7FF
:1080C0004FF480154FF000074FF000064FF0000806
:1080D000ADE7F0BC4FF0000001F1C04101F00041FC
:1080E000BDE8008111EA0C1F0CEA131500D00CE06A
:1080F00013EA0C1F00F025804FF00000F0BC81EA6D
:10810000030101F00041BDE80081F0BCBDE8004181
:1081100081EA030100F0BEB9F0BCBDE8004170B5D2
:1081200000F06AF9097EFC3E00F007B881EA03011D
:108130004FF0000001F00041704781EA030100F0B8
:10814000A9B9F0BCBDE800414FF0000021497047DB
:10815000FFFDFBF9F7F5F4F2F0EEEDEBE9E8E6E40C
:10816000E3E1E0DEDDDBDAD8D7D5D4D3D1D0CFCD93
:10817000CCCBCAC8C7C6C5C4C2C1C0BFBEBDBCBBCC
:10818000BAB9B8B7B6B5B4B3B2B1B0AFAEADACABC7
:10819000AAA9A8A8A7A6A5A4A3A3A2A1A09F9F9EA1
:1081A0009D9C9C9B9A999998979796959594939353
:1081B000929191908F8F8E8E8D8C8C8B8B8A8989EA
:1081C000888887878685858484838382828181806D
:1081D0000000FF070000F87F10F0004248BF404257
:1081E000B0FA80F310FA03F10AD0C3F11D0303F5CE
:1081F00080634FEA415002EB035202EBD1217047FA
:108200004FF000007047B0FA80F310FA03F10AD083
:10821000C3F11D0303F580634FEA41504FEA035257
:1082200002EBD12170474FF00000704751EA030C78
:1082300017D41CF5801F58BFBCF5801F00F10680C5
:10824000994218BF704708BF9042704707D711F591
:10825000801F58BF13F5801F19D499427047894277
:1082600070471CF5801F08D5BCF5801FF7D58B42E1
:1082700018BF704708BF824270474FF4001C1CEBC8
:10828000410F38BF1CEB430F01D28B42704770B5D2
:1082900000F0B2F8922449004FF000514FF08053A3
:1082A000FFF736BEDFF848C170B51CEA111E1EBFCD
:1082B0001CEA13159EEA0C0F95EA0C0F00F06F8074
:1082C00081EA030423EA4C134EEAD47E21EA4C11DE
:1082D00041F4801143F48013AE44A1FB024CA0FB97
