:020000040800F2
:1028000098090020ED310008352A0008372A000811
:102810003B2A00083F2A0008432A00080000000065
:10282000000000000000000000000000472A00082F
:10283000492A0008000000004B2A00084D2A000821
:102840000732000807320008073200080732000884
:102850000732000807320008073200080732000874
:102860000732000807320008073200080732000864
:102870000732000807320008073200080732000854
:102880000732000807320008073200080732000844
:102890000732000807320008073200080732000834
:1028A0000732000807320008073200080732000824
:1028B00007320008215400080732000807320008D8
:1028C0000732000807320008073200080732000804
:1028D00007320008B960000807320008835C00086E
:1028E000BB620008073200080732000800F002F857
:1028F00000F04CF80AA090E8000C82448344AAF14E
:102900000107DA4501D100F041F8AFF2090EBAE84B
:102910000F0013F0010F18BFFB1A43F00103184713
:102920005C5D00007C5D0000103A24BF78C878C16F
:10293000FAD8520724BF30C830C144BF04680C60C5
:10294000704700000023002400250026103A28BF0D
:1029500078C1FBD8520728BF30C148BF0B60704711
:10296000782904F06782002070471FB59DE80300B6
:1029700004F034FC04F06EFF04000020002104F099
:10298000CFFF401C60601FBD10B510BD04F001FFFB
:102990001146FFF7EAFF00F009F804F027FF03B43F
:1029A000FFF7F2FF03BC03F015FA00004FF42051CB
:1029B0004FF0006000F0F1FF02F00EFC02F014FC9A
:1029C0004FF4165003F0BEF802F0C2FA4FF4E130B3
:1029D00003F00FFA4FF47A71012002F0EBFC02F0E1
:1029E00039FF02F073FC03F017FC03F02FFC00200A
:1029F0000E4908600E49C1F8AC0102E0052002F062
:102A000030FC04F00BF90028F8D140F644410720CF
:102A100003F074FC08E003F083FC02F06BFC14206C
:102A200002F01FFC02F06BFEF5E70000B00121424E
:102A300000002142704700BFFEE700BFFEE700BF75
:102A4000FEE700BFFEE77047704770477047000021
:102A50000CB50020019000906C48006840F4803074
:102A60006A49086000BF6948006800F400300090BF
:102A70000198401C0190009818B90198B0F5A06F1A
:102A8000F1D16248006800F4003010B101200090DC
:102A900001E0002000900098012843D15C480068C4
:102AA00040F010005A4908600846006820F0030012
:102AB00008600846006840F002000860534840681B
:102AC000524948600846406848600846406840F4FB
:102AD000806048600846406820F47C1048600846E2
:102AE000406840F4E81048600846006840F0807094
:102AF000086000BF4548006800F000700028F9D069
:102B00004248406820F00300404948600846406859
:102B100040F00200486000BF3C48406800F00C00F4
:102B20000828F9D10CBD10B5FFF792FF10BD10B504
:102B30003648006840F001003449086008464068A3
:102B40003449084031494860084600683249084025
:102B50002E4908600846006820F480200860084676
:102B6000406820F4FE0048604FF41F008860FFF7C3
:102B7000DAFF4FF000602949086010BD10B5002150
:102B800000200022214B5B6803F00C0121B10429D5
:102B900006D0082928D107E0214B224C236027E0EA
:102BA0001F4B204C236023E0184B5B6803F470102C
:102BB000164B5B6803F48032022303EB904022B98A
:102BC000194B4343174C23600DE0104B5B6803F433
:102BD000003323B1144B4343124C236003E0104BEA
:102BE0004343104C236003E00D4B0E4C236000BFA9
:102BF00000BF064B5B68C3F303130C4CE15C094B4D
:102C00001B68CB40074C236010BD00000010024041
:102C1000002002400000FFF8FFFFF6FE08ED00E094
:102C200000127A000000002000093D00040000208E
:102C300001460020FE4A106800F03800084310608A
:102C40007047FB49096821F00801F94A11601146F3
:102C50000968014311607047F549096821F01001C6
:102C6000F34A116011460968014311607047F14849
:102C7000EF494860F04848607047EE48EC494860CA
:102C8000ED4848607047EA48006940F08000E84934
:102C900008617047E648006940F08000E449086137
:102CA00070470420E249C96801F0010109B101201F
:102CB0000EE0DF49C96801F0040109B1022007E014
:102CC000DB49C96801F0100109B1032000E00420CC
:102CD000704700B502460423FFF7E3FF034603E015
:102CE000FFF7DFFF0346521E012B01D1002AF7D167
:102CF00002B90523184600BD30B5044604254FF43B
:102D00003020FFF7E6FF0546042D17D1C8480069BB
:102D100040F00200C649086108464461006940F07D
:102D2000400008614FF43020FFF7D3FF0546C0484C
:102D3000006941F6FD710840BD490861284630BD73
:102D400010B504244FF43020FFF7C3FF0446042CD1
:102D500016D1B748006940F00400B549086108463B
:102D6000006940F0400008614FF43020FFF7B1FFE8
:102D70000446AF48006941F6FB710840AC49086160
:102D8000204610BD00B502460423FFF78AFF034624
:102D900003E0FFF786FF0346521E012B01D1002AF4
:102DA000F7D102B90523184600BD10B504244FF42D
:102DB0003020FFF7E7FF0446042C16D19C48006939
:102DC00040F004009A4908610846006940F040005C
:102DD00008614FF43020FFF7D5FF0446944800699E
:102DE00041F6FB71084092490861204610BD002061
:102DF0008F49C96901F0020109B1012000E00020FA
:102E0000704730B5A5250424FFF7F1FF00B1002578
:102E10004FF43020FFF75DFF0446042C3AD185487B
:102E200083498860844888600846006940F0200033
:102E300008610846006940F0400008614FF4302006
:102E4000FFF747FF0446042C1BD17948006941F67F
:102E5000DF710840764908610846006940F01000BB
:102E6000086176480580E002FFF733FF0446052C31
:102E700010D06F48006941F6EF7108406C49086155
:102E800008E0052C06D06A48006941F6EF71084059
:102E900067490861204630BD78B506460C460425D2
:102EA00000200090E802FFF714FF0546042D24D10E
:102EB0005F48006940F001005D4908613480E80224
:102EC000FFF707FF0546042D10D1B01C0090200C21
:102ED00000990880E802FFF7FCFE054654480069A7
:102EE00041F6FE7108405249086106E05048006909
:102EF00041F6FE7108404E490861284678BD70B51C
:102F000004460D460426F002FFF7E3FE0646042EB3
:102F100011D14748006940F001004549086125800A
:102F2000F002FFF7D6FE06464148006941F6FE7101
:102F300008403F490861304670BD70B505460E46F1
:102F40000424E002FFF7C5FE0446042C17D13948DB
:102F500037498860384888600846006940F01000AA
:102F600008612E80E002FFF7B4FE0446052C06D06F
:102F70002F48006941F6EF7108402D49086120464D
:102F800070BD2DE9F04304464FF6FF763746B04654
:102F9000B1460425E443E6B2C4F30727C4F3074867
:102FA0004FEA1469E802FFF794FE0546042D49D163
:102FB00020481F498860204888600846006940F022
:102FC00010000861FF2E06D01C4808300680E80279
:102FD000FFF77FFE0546042D08D1FF2F06D01748C6
:102FE0000A300780E802FFF774FE0546042D0AD177
:102FF000B8F1FF0F07D011480C30A0F80080E802AC
:10300000FFF767FE0546042D0AD1B9F1FF0F07D07F
:103010000A480E30A0F80090E802FFF75AFE054675
:10302000052D0FD00248006941F6EF71084007E016
:103030000020024023016745AB89EFCD00F8FF1F58
:10304000664908612846BDE8F08330B5054604248A
:103050004FF43020FFF73DFE0446042C41D1604878
:103060005E4988605F4888600846006940F020003B
:1030700008610846006940F0400008614FF43020C4
:10308000FFF727FE0446042C22D15448006941F67C
:10309000DF710840514908610846006940F010009E
:1030A00008611DB100205049088002E0A5204E496A
:1030B00008804FF43020FFF70CFE0446052C10D09A
:1030C0004648006941F6EF7108404449086108E04C
:1030D000052C06D04148006941F6DF7108403F49A0
:1030E0000861204630BDF0B505460E46174604245B
:1030F0003B483A4988603B488860E002FFF7E9FDB9
:103100000446042C19D13548006940F010003349B9
:10311000086147F0F800304328433349891C088090
:10312000E002FFF7D6FD0446052C06D02B480069C7
:1031300041F6EF710840294908612046F0BD274853
:10314000C069800870472548006A704700202349FD
:10315000096801F0200109B1012000E0002070475A
:1031600029B11E4A126902431C4B1A6104E01B4A32
:1031700012698243194B1A617047014600200129E8
:1031800008D1164AD26902F001020AB1012008E012
:10319000002006E0114AD2680A400AB1012000E08E
:1031A000002070470D49C860704704200B49C9686A
:1031B00001F0010109B101200EE00849C96801F0E0
:1031C000040109B1022007E00449C96801F01001B7
:1031D00009B1032000E004207047000000200240F5
:1031E00023016745AB89EFCD00F8FF1F09488047F1
:1031F00009480047FEE7FEE7FEE7FEE7FEE7FEE7D9
:10320000FEE7FEE7FEE7FEE704480549054A064BF0
:10321000704700002F2B0008ED28000898030020BD
:1032200098090020980500209805002010B5044654
:10323000CC48844208D10121042000F02DFB00215C
:10324000042000F029FB46E0C748844208D1012150
:10325000082000F021FB0021082000F01DFB3AE0CF
:10326000C248844208D10121102000F015FB002142
:10327000102000F011FB2EE0BD48844208D101214E
:10328000202000F009FB0021202000F005FB22E0B7
:10329000B848844208D10121402000F0FDFA002105
:1032A000402000F0F9FA16E0B348844208D1012129
:1032B000802000F0F1FA0021802000F0EDFA0AE011
:1032C000AE48844207D10121801500F0E5FA0021C3
:1032D000A01500F0E1FA10BD10B50121084600F07C
:1032E000DBFA0021012000F0D7FA10BD2DE9F041F2
:1032F000024600250026002000230024002791F824
:1033000003C00CF00F0591F803C00CF0100CBCF1D9
:10331000000F03D091F802C04CEA050591F800C0F7
:10332000BCF1000F31D0146800202BE04FF0010CED
:103330000CFA00F3B1F800C00CEA03069E4220D15B
:1033400083004FF00F0C0CFA03F7BC4305FA03FCA3
:103350004CEA040491F803C0BCF1280F06D14FF0E9
:10336000010C0CFA00FCC2F814C00AE091F803C08A
:10337000BCF1480F05D14FF0010C0CFA00FCC2F86B
:1033800010C0401C0828D1D31460B1F800C0BCF1B3
:10339000FF0F34DD546800202EE000F1080C4FF0E0
:1033A000010808FA0CF3B1F800C00CEA03069E42CB
:1033B00021D183004FF00F0C0CFA03F7BC4305FA40
:1033C00003FC4CEA040491F803C0BCF1280F05D1BA
:1033D00000F1080C08FA0CF8C2F8148091F803C048
:1033E000BCF1480F07D100F1080C4FF0010808FAB2
:1033F0000CF8C2F81080401C0828CED35460BDE8F9
:10340000F0814FF6FF710180022181700421C170AB
:1034100070470246002093680B400BB1012000E08A
:10342000002070470146886880B27047024600203D
:10343000D3680B400BB1012000E00020704701462B
:10344000C86880B2704701617047416170470AB136
:10345000016100E041617047C16070474FF4803204
:103460000A43826181618261826982697047024692
:103470000020434B18684FF68073184040EA021052
:1034800008433F4B186070473E49C8617047F0B52C
:103490000A46002300240021002500F00046B6F172
:1034A000004F02D1364EF16901E0354E7168C0F32C
:1034B000034583B200F44016B6F5401F08D121F051
:1034C00070612F4E766826F070662D4F7E6012E098
:1034D00000F48016B6F5801F06D1032606FA05F41F
:1034E000A14341F0706106E0460D360103FA06F68D
:1034F000B14341F0706122B1460D360103FA06F680
:10350000314300F00046B6F1004F02D11C4EF1618C
:1035100001E01B4E7160F0BD30B500228B071C0F1F
:103520000F2303FA04F2164B08338C1053F824309F
:103530009343134C08348D1044F8253023468C10E7
:1035400053F824308C07240F00FA04F423430C4C66
:1035500008348D1044F8253030BD0A49DC3108604C
:103560007047000000080140000C014000100140BD
:103570000014014000180140001C014000200140DF
:103580000000014000002042DF48006840F00100D8
:10359000DD49086008464068DC490840DA4948606F
:1035A00008460068DA490840D749086008460068BC
:1035B00020F4802008600846406820F4FE0048603F
:1035C0004FF41F0088607047CF49096821F48031AB
:1035D000CD4A11601146096821F480211160B0F5CF
:1035E000803F03D0B0F5802F0ED106E0C6490968B0
:1035F00041F48031C44A116007E0C349096841F4CD
:10360000A021C14A116000E000BF00BF704710B5A3
:1036100001460022002300204A11012A02D1BA4C9F
:10362000236806E0022A02D1B74C236A01E0B64CB7
:10363000636A01F01F02012494401C400CB1012078
:1036400000E0002010BD38B50020009000240025C7
:1036500000BF3120FFF7DBFF05460098401C0090BB
:103660000098B0F5A06F01D0002DF2D03120FFF707
:10367000CEFF08B1012400E00024204638BD0146F9
:103680000020A14A106820F0F80040EAC100106054
:103690007047A04908607047024600209A4B58685E
:1036A00020F47C1042EA01031843974B586070479E
:1036B00098490866704701460020934A506820F0F8
:1036C00003000843506070478F48406800F00C00CA
:1036D0007047014600208C4A506820F0F0000843F3
:1036E0005060704701460020874A506820F4E0602F
:1036F00008435060704701460020834A506820F418
:10370000605040EAC1005060704729B17E4A527A49
:1037100002437D4B5A7204E07B4A527A82437A4BD1
:103720005A7270477B49D8310860704701460020C3
:10373000754A506820F440400843506070470021AB
:10374000714A20321170704A82F82010012802D08C
:1037500004280AD104E001216B4A2032117005E0EF
:103760000521694A2032117000E000BF00BF704798
:103770006949086070476449096A0143624A1162F5
:103780007047654944390860704730B50021002210
:10379000002400235C4D6D6805F00C0121B1042963
:1037A00005D0082923D105E05C4D056022E05B4D82
:1037B00005601FE0544D6D6805F47012524D6D6840
:1037C00005F48034022505EB92421CB9544D554353
:1037D00005600BE04C4D6D6805F400351DB1504D92
:1037E0005543056002E04D4D5543056002E04B4DE9
:1037F000056000BF00BF444D6D6805F0F001090988
:10380000484D6B5C0568DD4045603F4D6D6805F4D3
:10381000E061090A434D6B5C4568DD4085603A4DC7
:103820006D6805F46051C90A3E4D6B5C4568DD402A
:10383000C560354D6D6805F44041890B3A4D6B5CB0
:10384000C568B5FBF3F5056130BD29B12E4A526953
:1038500002432D4B5A6104E02B4A526982432A4BA2
:103860005A61704729B1284A92690243264B9A61EE
:1038700004E0254A92698243234B9A61704729B13B
:10388000214AD2690243204BDA6104E01E4AD26920
:1038900082431D4BDA61704729B11B4AD26802434B
:1038A000194BDA6004E0184AD2688243164BDA609A
:1038B000704729B1144A12690243134B1A6104E09C
:1038C000114A12698243104B1A61704712494039FC
:1038D000086070470F49C86470470B49C87170474A
:1038E0000948406A40F080700749486270470146C5
:1038F0000020054A92680A400AB1012000E0002039
:103900007047014988727047001002400000FFF8BC
:10391000FFFFF6FE000042428004424200127A009D
:1039200000093D001400002024000020314901431B
:10393000314A1160704770B5002100230F22C4780E
:1039400004B32D4C246804F4E064C4F5E064210A57
:10395000C1F10403CA40447804FA03F184781440A6
:1039600021430901254C0678A155047804F01F0570
:103970000124AC4005786D11AD0005F1E025C5F8D6
:10398000004109E0047804F01F050124AC401C4DFF
:103990000678761145F8264070BD1A4A0A4002435F
:1039A000154B1B1F1A60704739B1134A121D12685C
:1039B0000243114B1B1D1A6006E00F4A121D1268CC
:1039C00082430D4B1B1D1A607047042808D14FF02D
:1039D000E021096941F004014FF0E022116107E0A4
:1039E0004FF0E021096921F004014FF0E02211615C
:1039F000704700000000FA050CED00E000E400E074
:103A000080E100E080FFFF1F10B50446FB488442C0
:103A100009D101218803FFF73FFF00214FF48040C7
:103A2000FFF73AFF32E0F648844209D10121480409
:103A3000FFF73FFF00214FF40030FFF73AFF25E08A
:103A4000F048844209D101218804FFF732FF0021A8
:103A50004FF48020FFF72DFF18E0EB48844209D196
:103A60000121C804FFF725FF00214FF40020FFF7D4
:103A700020FF0BE0E548844208D101210805FFF74B
:103A800018FF00214FF48010FFF713FF10BD2DE940
:103A9000F04786B005460E460024A24600BFA14668
:103AA0000027B08900B100BF2F462C8A4CF6FF706A
:103AB0000440F08804432C82AC894EF6F310044095
:103AC000B08831890843718908430443AC81AC8ACA
:103AD0004FF6FF400440B0890443AC8201A8FFF7D1
:103AE00054FEC648874202D1DDF810A001E0DDF89F
:103AF0000CA0A88900F4004040B10AEBCA0000EB1A
:103B00000A1031684900B0FBF1F807E00AEBCA007F
:103B100000EB0A1031688900B0FBF1F86420B8FBB3
:103B2000F0F004012009642101FB1089A88900F448
:103B3000004040B1322000EBC900B0FBF1F000F0D2
:103B40000700044308E0322000EB09106421B0FBB9
:103B5000F1F000F00F0004432C8106B0BDE8F087BF
:103B60004FF41651016000218180C18001810C2138
:103B7000418100218181704710B502460020108AE2
:103B80004FF2FF0318400B884C8823438C88234353
:103B9000CC8823431843108210BD0021018041804E
:103BA0008180C180704721B1828942F400528281B4
:103BB00004E082894DF6FF731A4082817047F0B5A8
:103BC0000346002400260025002040F66A17B9426B
:103BD00000D100BF1846C1F3421401F01F060127AF
:103BE00007FA06F5012C01D10C3004E0022C01D1BA
:103BF000103000E014301AB107682F43076002E06C
:103C00000768AF430760F0BD1AB1838A0B43838214
:103C100002E0838A8B4383827047028A4FF6F073F7
:103C20001A400282028A0A430282704782894FF256
:103C3000FF731A40828182890A438281704721B1D1
:103C4000828942F00202828104E082894FF6FD738C
:103C50001A4082817047028A4FF6DF731A4002824F
:103C6000028A0A430282704721B1028A42F48042EA
:103C7000028204E0028A4BF6FF731A400282704708
:103C8000C1F308028280704701468888C0F30800AB
:103C90007047818941F0010181817047028BD2B266
:103CA0000283028B42EA012202837047028B02F4F4
:103CB0007F420283028B0A430283704721B1828ACA
:103CC00042F02002828204E0828A4FF6DF731A40BB
:103CD0008282704721B1828A42F01002828204E01F
:103CE000828A4FF6EF731A408282704721B1828A2E
:103CF00042F00802828204E0828A4FF6F7731A408B
:103D00008282704721B1828942F40042828103E0BD
:103D10008289C2F30E028281704721B1828A42F405
:103D20000062828204E0828A4FF2FF731A4082822C
:103D30007047828A4FF6FB731A408282828A0A4356
:103D40008282704721B1828A42F00202828204E0BC
:103D5000828A4FF6FD731A40828270470246002025
:103D6000B1F5007F00D100BF13880B400BB10120DB
:103D700000E00020704701F40072B2F5007F00D12E
:103D800000BFCA430280704770B50246002400237A
:103D90000025002040F66A16B14200D100BFC1F3F1
:103DA000421501F01F03012606FA03F3012D02D18B
:103DB0009689334006E0022D02D1168A334001E095
:103DC000968A33400C12012606FA04F41688344011
:103DD00013B10CB1012000E0002070BD10B500222D
:103DE000002340F66A14A14200D100BF0A12012448
:103DF0009440A3B2DC43048010BD000000380140B1
:103E00000044004000480040004C0040005000408A
:103E100010B50446FE48844208D10121C014FFF7C2
:103E20003BFD0021E014FFF737FDC4E0B4F1804F03
:103E300008D101210846FFF73CFD00210120FFF7D2
:103E400038FDB8E0F348844208D101210220FFF791
:103E500030FD00210220FFF72CFDACE0EE4884424B
:103E600008D101210420FFF724FD00210420FFF7E1
:103E700020FDA0E0E948844208D101210820FFF795
:103E800018FD00210820FFF714FD94E0E448844267
:103E900008D101211020FFF70CFD00211020FFF7B1
:103EA00008FD88E0DF48844208D101212020FFF787
:103EB00000FD00212020FFF7FCFC7CE0DA48844272
:103EC00008D101214014FFF7E7FC00216014FFF73F
:103ED000E3FC70E0D548844209D10121C804FFF712
:103EE000DBFC00214FF40020FFF7D6FC63E0D04854
:103EF000844209D101210805FFF7CEFC00214FF4CF
:103F00008010FFF7C9FC56E0CA48844209D101215C
:103F10004805FFF7C1FC00214FF40010FFF7BCFC7F
:103F200049E0C548844208D101214020FFF7C1FC87
:103F300000214020FFF7BDFC3DE0C048844208D18D
:103F400001218020FFF7B5FC00218020FFF7B1FCA4
:103F500031E0BB48844208D101218015FFF7A9FC5C
:103F60000021A015FFF7A5FC25E0B648844209D141
:103F700001210804FFF790FC00214FF48030FFF787
:103F80008BFC18E0B048844209D101214804FFF7B6
:103F900083FC00214FF40030FFF77EFC0BE0AB48C0
:103FA000844208D101218804FFF776FC00214FF4F8
:103FB0008020FFF771FC10BD00220288944B9842CC
:103FC0000ED0994B98420BD0B0F1804F08D0914B56
:103FD000984205D0904B984202D0904B984204D121
:103FE0004FF68F731A404B881A438D4B984207D077
:103FF0008C4B984204D04FF6FF431A40CB881A43AB
:1040000002808B8883850B880385814B98420BD077
:10401000854B984208D08B4B984205D08A4B9842EA
:1040200002D08A4B984201D10B7A03860123838206
:10403000704770B5002400220023058C4FF6FE76F1
:1040400035400584028C8388048B4FF68F752C4095
:10405000B51E2C400D882C43751E2A400D892A431D
:104060004D882A436A4DA8420BD06F4DA84208D014
:10407000744DA84205D0744DA84202D0734DA84299
:1040800013D14FF6F7752A404D892A434FF6FB7539
:104090002A408D882A434FF6FF652B404FF6FF5587
:1040A0002B408D892B43CD892B4383800483CD887E
:1040B0008586028470BD70B5002400220023058C23
:1040C0004FF6EF7635400584028C8388048B48F6E2
:1040D000FF752C404FF6FF452C400D884FF6FF76BC
:1040E00006EA05252C434FF6DF752A400D8906EABE
:1040F00005152A434D8806EA05152A43444DA84272
:1041000002D0494DA8421DD14FF67F752A404D89F6
:104110004FF6FF7606EA05152A434FF6BF752A408B
:104120008D8806EA05152A434FF6FF352B404FF2DE
:10413000FF752B408D8906EA85052B43CD8906EA5C
:1041400085052B4383800483CD880587028470BD59
:1041500070B5002400220023058C4FF6FF66354021
:104160000584028C8388848B4FF68F752C404FF624
:10417000FC752C400D882C434FF6FF552A400D89C5
:104180004FF6FF7606EA05252A434D8806EA0525FF
:104190002A431F4DA84202D0234DA8421DD14FF201
:1041A000FF752A404D894FF6FF7606EA05252A431A
:1041B0004FF6FF352A408D8806EA05252A434EF63C
:1041C000FF752B404DF6FF752B408D8906EA0515CE
:1041D0002B43CD8906EA05152B4383808483CD8844
:1041E0008587028470BD70B5002200230024058CF1
:1041F0004EF6FF7635400584038C8488828B48F622
:10420000FF752A404FF6FF452A400D8820E0000048
:10421000002C01400004004000080040000C004059
:10422000001000400014004000340140004C0140E8
:10423000005001400054014000180040001C0040A4
:10424000002000400040014000440140004801407F
:104250004FF6FF7606EA05252A434DF6FF752B40FB
:104260000D8906EA05352B434D8806EA05352B43B3
:10427000FA4DA84202D0FA4DA84208D14BF6FF757C
:104280002C408D894FF6FF7606EA85152C438480F5
:104290008283CD88A0F84050038470BD828B4FF29A
:1042A000FF331A408283828B4FF6FF7303EA0123A8
:1042B0001A4382837047F0B50C4615460022002150
:1042C0000026078C4EF6FF7C07EA0C070784828BDA
:1042D000018C4FF6FF7707EA043640F6FF473A4075
:1042E0004FF6FF7707EA05273A434FF6FF7707EACD
:1042F00003373A43D94FB8420ED0D94FB8420BD00A
:10430000B0F1804F08D0D74FB84205D0D64FB84251
:1043100002D0D64FB84206D14DF6FF77394046F469
:104320008057394305E047F6FF57394044F480573A
:10433000394382830184F0BD828B4FF6F3731A40B8
:104340008283828B0A4382837047F0B50C46154600
:10435000002200210026078C4FF6FF6C07EA0C07AD
:104360000784828B018C4FF6FF7707EA04264FF60D
:104370000C773A404FF6FF7707EA03172F433A438B
:10438000B64FB8420ED0B64FB8420BD0B0F1804F06
:1043900008D0B44FB84205D0B34FB84202D0B34FA3
:1043A000B84206D14FF6FF57394046F4807739437B
:1043B00005E04FF2FF57394044F480773943828358
:1043C0000184F0BD028B4FF2FF331A400283028B4F
:1043D0004FF6FF7303EA01231A4302837047F0B5D7
:1043E0000C461546002200210026078C4FF6EF7C74
:1043F00007EA0C070784028B018C4FF6FF7707EA68
:10440000041640F6FF473A404FF6FF7707EA0337B6
:104410003A434FF6FF7707EA05273A438F4FB842F2
:104420000ED08F4FB8420BD0B0F1804F08D08D4FD7
:10443000B84205D08C4FB84202D08C4FB84206D15A
:104440004FF6DF77394046F01007394305E04FF665
:104450005F77394044F01007394302830184F0BD8F
:10446000028B4FF6F3731A400283028B0A430283D6
:104470007047F0B50C46154600220021068C4FF619
:10448000FE773E400684028B018C4FF60C7632405C
:104490007E1C06EA03162E433243704EB0420ED005
:1044A0006F4EB0420BD0B0F1804F08D06D4EB0428D
:1044B00005D06D4EB04202D06C4EB04206D14FF6E0
:1044C000FD76314044F00106314305E04FF6F576C4
:1044D000314044F00106314302830184F0BD70B5E0
:1044E00005460C465D4885420ED05D4885420BD09E
:1044F000B5F1804F08D05B48854205D05A488542C7
:1045000002D05A48854200D100E000BF208850B94F
:104510002389A28861882846FFF7ABFFE1882846F7
:10452000FFF79EFF25E0208804280AD12389A2886E
:1045300061882846FFF753FFE1882846FFF742FFCE
:1045400017E0208808280AD12389A2886188284694
:10455000FFF7FBFEE1882846FFF7EEFE09E023891E
:10456000A28861882846FFF7A6FEE1882846FFF763
:1045700095FE70BD2DE9F04105460C460026012749
:10458000608808B9022600E00026A088012801D131
:10459000022700E001272088A0B92389A28861882A
:1045A0002846FFF766FFE1882846FFF759FF238971
:1045B0003A4631462846FFF712FFE1882846FFF7C2
:1045C00001FF13E02389A28861882846FFF707FFCF
:1045D000E1882846FFF7F6FE23893A463146284609
:1045E000FFF747FFE1882846FFF73AFFBDE8F08173
:1045F0000A884B881A438B881A43CB881A430B8945
:104600001A434B891A438B891A43A0F844207047F8
:104610004FF6FF71818000210180C18041800172CD
:1046200070470021018041808180C18001814181EA
:104630008181C181704700210180418001218180F9
:104640000021C1800181704700210180418081806B
:10465000C18001814181818170470000002C0140AF
:10466000003401400004004000080040000C0040FD
:1046700021B1028842F00102028004E002884FF674
:10468000FE731A400280704731B1B0F8442042F402
:104690000042A0F8442005E0B0F84420C2F30E0226
:1046A000A0F8442070471AB183890B43838102E04C
:1046B00083898B43838170478182704741EA02037B
:1046C000A0F8483070471AB183890B43838102E018
:1046D00083898B438381704701894FF6F8721140BB
:1046E000018170470A46002101894FF68F731940F6
:1046F00011430181704730B504460D4629462046D6
:10470000FFF7F0FF208940F00700208130BD2DE940
:10471000F04104460D4616461F46602D06D13B4625
:10472000012231462046FFF75AFE05E03B460122B2
:1047300031462046FFF79DFE29462046FFF7D2FF6F
:10474000208940F007002081BDE8F08130B50C469B
:1047500000210189C9B24FF6FF7505EA032515430B
:1047600025432943018130BD2DE9F04105460E4620
:1047700017469846002443463A4631462846FFF7F6
:10478000E5FF2C894FF6F870044044F007044FF61B
:104790008F70044044F070042C81BDE8F081F0B5C6
:1047A00004460D4616461F463B46324629462046DD
:1047B000FFF7CCFF208940F480402081F0BD0185C7
:1047C000828270470A46002101884FF68F73194094
:1047D000114301807047F0B50C4615461E46002176
:1047E000002200230189028B038C4FF6F8773940B1
:1047F00021434FF6FC473A4040F201173A434FF647
:10480000DD773B404FF6FF7707EA06172F433B4320
:10481000018102830384F0BD0A460021018B4FF61B
:104820008F7319401143018370470A460021018BA1
:1048300048F6FF7319404FF6FF7303EA022319434A
:10484000018370470A460021818B4FF68F73194010
:104850001143818370470A460021818B48F6FF731C
:1048600019404FF6FF7303EA02231943818370470F
:1048700021B1028842F08002028004E002884FF6F3
:104880007F731A400280704721B1828842F004028F
:10489000828004E082884FF6FB731A408280704762
:1048A00021B1828842F00802828004E082884FF6BB
:1048B000F7731A408280704721B1828842F001026A
:1048C000828004E082884FF6FE731A40828070472F
:1048D0000A460021018B4FF6F773194011430183FB
:1048E00070470A460021018B4FF2FF7319404FF6C3
:1048F000FF7303EA02231943018370470A4600212C
:10490000818B4FF6F77319401143818370470A4634
:104910000021818B4FF2FF7319404FF6FF7303EABA
:1049200002231943818370470A460021018B4FF609
:10493000FB7319401143018370470A460021018B24
:104940004FF6FF3319404FF6FF7303EA0223194372
:10495000018370470A460021818B4FF6FB73194093
:104960001143818370470A460021818B4FF6FF3344
:1049700019404FF6FF7303EA0223194381837047FE
:104980000A460021018B4FF67F73194011430183C2
:1049900070470A460021018BC1F30E014FF6FF73E9
:1049A00003EA02231943018370470A460021818BE1
:1049B0004FF67F7319401143818370470A460021E7
:1049C000818BC1F30E014FF6FF7303EA02231943F3
:1049D000818370470A460021018C4FF6FD73194010
:1049E0001143018470470A460021018C4FF6F7738A
:1049F00019401143018470470A460021018C4FF68B
:104A0000DF7319404FF6FF7303EA02131943018461
:104A100070470A460021018C4FF67F7319404FF60C
:104A2000FF7303EA02131943018470470A46002109
:104A3000018C4FF6FF5319404FF6FF7303EA022330
:104A40001943018470470A460021018C4FF2FF731D
:104A500019404FF6FF7303EA02231943018470479C
:104A60000A460021018C4DF6FF7319404FF6FF7383
:104A700003EA023319430184704730B5002301244F
:104A80008C40A3B2048C9C430484048C02FA01F58C
:104A9000ADB22C43048430BD30B5002304248C40D7
:104AA000A3B2048C9C430484048C02FA01F5ADB2D9
:104AB0002C43048430BD70B5034600200024184602
:104AC000183001258D40ACB21D8CA5431D8409B161
:104AD000082909D100EB6100056825F07005056023
:104AE0000568154305600EE00D1FC5F34E0528440B
:104AF000056825F4E045056005684FF6FF7606EA8F
:104B000002263543056070BD21B1028842F00202E1
:104B1000028004E002884FF6FD731A40028070475D
:104B200021B1028842F00402028004E002884FF6BC
:104B3000FB731A400280704721B1828842F08002E4
:104B4000828004E082884FF67F731A40828070472B
:104B500002884FF6F7731A40028002880A430280E7
:104B6000704782884FF68F731A40828082880A438A
:104B70008280704702894FF6F8731A4002810289D9
:104B80000A430281704702894FF67F731A400281FF
:104B900002890A430281704781847047818570478A
:104BA000818670470187704781877047A0F8401061
:104BB000704702884FF6FF431A40028002880A437A
:104BC000028070470146888E70470146088F704703
:104BD0000146888F70470146B1F840007047014692
:104BE000888C70470146088D704702460020138A62
:104BF0000B400BB1012000E000207047CA43028245
:104C0000704730B50246002000230024158A05EACB
:104C10000103958905EA010413B10CB1012000E0FC
:104C2000002030BDCA430282704700000020444982
:104C30000860091D0860091D0860091D08604148D9
:104C40003F4914310860704700213D498279002AAC
:104C50003AD00A46126803689A430B461A600A1D46
:104C6000126803689A430B1D1A60027911440A689E
:104C700003681A430A60324A0832126803689A438A
:104C80002F4B08331A601A1D126803689A432C4B85
:104C90000C331A604279102A0ED11A1F1268036869
:104CA0001A43274B08331A601A1D126803681A4307
:104CB000234B0C331A600DE02149427911440A68F4
:104CC00003681A430A6005E0027911440A68036820
:104CD0009A430A6070470021016001710C21417103
:104CE0000021817170471649103109680143144A47
:104CF00010321160704701460020114A14321268C8
:104D00000A400AB1012000E0002070470C4914312C
:104D100008607047014600200022094B1B6803EA27
:104D20000102074B14331B680B4013B10AB1012079
:104D300000E000207047024914310860704700000D
:104D400000040140FFFF0F000E49086070470D4945
:104D5000486070470B49886070474AF6AA200949A5
:104D6000086070474CF6CC40064908607047014621
:104D70000020044AD2680A400AB1012000E0002065
:104D800070470000003000402DE9F04F87B0064624
:104D900000F0DEF8322000F040FA00F0F3F8802056
:104DA00000F0A4F900F02FF9B0B9304600F09EF9F8
:104DB00000F029F980B900BF322000F02EFA00F08F
:104DC000E1F8812000F092F900F01DF9012800D1EE
:104DD00000E000200028EFD1322000F01EFA002071
:104DE00000F0B2F90446322000F017FA002000F07B
:104DF000ABF90546002000F0A7F900F0E3F83220F7
:104E000000F00BFAFF2C05D1FF2D03D1002007B0D5
:104E1000BDE8F08F45EA042B2BF0030BF32E17D1DE
:104E2000584603F00DF9019003F066F807463F4A33
:104E30003F4B02F079FE3F4A3F4BCDE9020102F0C1
:104E400071FFCDE9040102F081FD82465046DEE7A4
:104E5000584603F0F5F8019003F04EF80746374A3C
:104E6000374B02F061FE0022364BCDE9020102F021
:104E700059FFCDE9040102F069FD81464846C6E7C5
:104E800010B500F065F800F07DF8802000F02EF9F4
:104E9000FE2000F02BF900F095F810BD10B500F0E1
:104EA00071F8802000F022F900F0ADF850B9E6204A
:104EB00000F01CF900F0A7F820B9832000F016F9E3
:104EC00000F0A1F810BD70B50024F320FFF75CFFDF
:104ED0000446204603F07CF81B4908701B49204615
:104EE00003F0C2F8054603F073F8C0B20A2190FB44
:104EF000F1F201FB120014494870F520FFF744FF5E
:104F00000446204603F064F80F4988700F49204694
:104F100003F0AAF8054603F05BF8C0B20A2190FB43
:104F2000F1F201FB12000849C87070BD619FC6DE36
:104F300007F7653FCDCCCCCCCC6C47407644CF77DF
:104F400001405F3F00001840280000200000204181
:104F50009D48806940F008009B4988619B48006833
:104F600020F07F40994908600846006840F04C50A6
:104F7000086096480C30006840F0C00093490C313E
:104F80000860704710B59148006820F070408F4964
:104F900008600846006840F04050086001208C49D5
:104FA00008608C49C1F898010A2000F036F9002009
:104FB000874908600A2000F030F900208549C1F8CF
:104FC000980110BD10B58148006820F070407F49FD
:104FD00008600846006840F04050086000207C49A6
:104FE000091F08607B49C1F89C010A2000F015F9EF
:104FF00001207749091F08607649C1F89C010A2001
:1050000000F00BF910BD10B500247048006820F0C6
:1050100070406E4908600846006840F00040086033
:1050200001206B4908600A2000F0F7F80120694967
:10503000C1F898010A2000F0F0F807E0601CC4B243
:10504000FA2C03DDFFF7BEFF012010BD6048803859
:1050500000680028F2D15E49091F086000BFF4E72C
:1050600010B500205A49091F08605848006820F010
:105070007040564908600846006840F0405008609B
:1050800000205449C1F89C010A2000F0C6F8012014
:105090004F49091F08600A2000F0BFF800204D4961
:1050A000C1F8980110BD10B500204949091F0860DA
:1050B0004648006820F0704044490860084600688F
:1050C00040F04050086001204249C1F89C010A208C
:1050D00000F0A3F801203E49091F08600A2000F0F3
:1050E0009CF800203B49C1F8980110BD70B50446FA
:1050F0003648006820F0704034490860084600686F
:1051000040F04050086000203149091F0860002528
:1051100017E0E0092E4908606006040E0A2000F03E
:105120007CF801202B49C1F898010A2000F075F89D
:1051300000202749091F08600A2000F06EF8681C4B
:10514000C5B2082DE5DB70BD70B5054600241F48CB
:10515000006820F070401D4908600846006840F073
:1051600000400860002617E000201949091F086068
:105170000A2000F052F801201649C1F89801600693
:10518000040E13488038006808B1601CC4B20A20BD
:1051900000F043F8701CC6B2082EE5DB15B9FFF726
:1051A00082FF01E0FFF75CFF204670BD70B504464A
:1051B000FFF7CEFEFFF7E6FE2046FFF797FFFFF76B
:1051C00022FF0546284670BD00100240000C014039
:1051D0009C8121420080214210B54FF4C060FEF74F
:1051E000A5FB10BD7047000010B56FF00400FEF77E
:1051F000ECFB2E4800682E49B0FBF1F02D490870F9
:105200000846007800EB4001C1EBC0104FF6FF717B
:1052100001EAC0002849088010BD0146254A1278DD
:105220004A434FF0E0235A6100229A611A461269FC
:1052300042F001021A6100BF4FF0E022106900F055
:1052400001021AB100F48032002AF5D04FF0E022BA
:10525000126922F001024FF0E0231A6100229A61E4
:1052600070470146144A12884A434FF0E0235A61BE
:1052700000229A611A46126942F001021A6100BFC7
:105280004FF0E022106900F001021AB100F4803200
:10529000002AF5D04FF0E022126922F001024FF00F
:1052A000E0231A6100229A6170470000000000208C
:1052B00000127A002C0000202E0000200220374926
:1052C00008800846008836490880704708B50122E2
:1052D0006946344800F064FBBDF800004FF6FF71EA
:1052E000884204D0BDF800002D49088001E0FFF796
:1052F000E5FF08BD10B52C480088052808DBFFF73E
:10530000E2FD00F0E3FB00F0E9FC00202649088004
:1053100010BD10B58AB00446FF208DF804008DF84A
:10532000050000208DF806008DF8074003208DF859
:10533000080000208DF8090009208DF80A001B489C
:1053400000788DF80B00194840788DF80C0017484C
:1053500080788DF80D001548C0788DF80E0000207B
:105360008DF80F008DF810008DF8110010480078AE
:105370008DF812000E4840788DF8130009AA10210C
:1053800001A800F02FFA9DF824008DF814009DF874
:1053900025008DF815000AB010BD0000B0000020F7
:1053A0003400002000F8000836000020280000200B
:1053B0003E0000207FB504460D4621460220FEF740
:1053C0005EFA01212448FFF72DFC4FF6FF7000EA3A
:1053D0004500ADF8040048F69F40ADF800000020FD
:1053E000ADF80600ADF8020069461B48FEF7E4FD83
:1053F00021461948FFF73CF9224601211648FFF7DC
:1054000052F91D208DF80C0001208DF80D000320AD
:105410008DF80E008DF80F4003A8FEF78CFA7FBDC3
:1054200010B501210C48FFF7FDFB0C480088401C1B
:105430000A4908800A480078401C0949087010BDD4
:1054400010B500210448FFF713F910BD10B5012174
:105450000148FFF70DF910BD0004004036000020A0
:105460003800002030B587B005460C46FF208DF887
:1054700008008DF80900D248008800128DF80A0053
:10548000CF4800788DF80B0045F080008DF80C00B7
:1054900000208DF80D0002208DF80E0020128DF8EE
:1054A0000F00E0B28DF8100001AA092102A800F057
:1054B00099F99DF804008DF811009DF805008DF80C
:1054C00012009DF80E000930C1B202A800F070FE73
:1054D00007B030BD10B50446E079022815D1207917
:1054E0000021FFF7BFFF6420FFF7BBFE00BFB548F8
:1054F000006800F4E060B4490843001DB149086049
:10550000BFF3408F00BF00BFFEE720790221FFF705
:10551000A9FF10BD10B50446AC480078B0B1607A60
:10552000012804D020790221FFF79CFF10BD207ACA
:10553000E17940EA0120A24908800122A44800F054
:105540000FFA20790021FFF78DFF03E02079082171
:10555000FFF788FF00BFE9E710B58AB004462021B5
:1055600002A801F0F3FD00200190FF208DF8080053
:105570008DF809009248008800128DF80A009048C2
:1055800000788DF80B00207940F080008DF80C0039
:1055900000208DF80D0003208DF80E0000208DF8FE
:1055A0000F008DF81000E0798849087008460078EF
:1055B0008DF811009DF80E00C11D01AA02A800F08F
:1055C00011F99DF804109DF80E00C01D02AA115497
:1055D0009DF805109DF80E00083011549DF80E003E
:1055E0000930C1B202A800F0E3FD0AB010BD70B5E9
:1055F0008EB00646202106A801F0A8FD142101A8BE
:1056000001F0A4FD002000900025307AF17940EAF5
:105610000120C4B2FF208DF818008DF819006848E9
:10562000008800128DF81A00654800788DF81B007C
:1056300081208DF81C00142C0BDD022400208DF835
:105640001D008DF81E408DF81F0004208DF82000ED
:1056500040E020128DF81D008DF81E4000208DF8CE
:1056600004008DF8050001208DF806008DF8070074
:1056700003208DF80C0000208DF80D0055480078AF
:105680008DF80E00534840788DF80F00514880780F
:105690008DF810004F48C0788DF811004E48007802
:1056A0008DF812004C4840788DF813004B48008864
:1056B00000128DF81400494800788DF81500002577
:1056C00006E001A8415DE81D06AA1154681CC5B298
:1056D000A542F6DBE11D6A4606A800F083F89DF8B6
:1056E0000010E01D06AA11549DF80110401C115431
:1056F000401CC1B206A800F05BFD0EB070BD10B535
:105700008CB0282102A801F021FD00242F48007848
:1057100008B9012000E0002031490860282102A8D2
:1057200000F062FC002848D09DF80E009DF80D1096
:1057300040EA0124E01D81B201AA02A800F052F85B
:105740009DF8041002AAE01D105C814235D19DF83D
:10575000051004F10800105C81422ED19DF80B0069
:105760009DF80A1040EA012015490988884207D0AF
:105770009DF80C00062820DB9DF80C0008281CDC96
:105780009DF80C00012806D0062808D007280AD06A
:10579000092810D10BE002A8FFF729FF0CE002A8AE
:1057A000FFF7DAFE08E002A8FFF7B4FE04E002A863
:1057B000FFF790FE00E000BF00BF0CB010BD00007E
:1057C000340000200CED00E00000FA05600000202D
:1057D00000F80008280000203E00002040000020C3
:1057E00088812142F0B50B46FF24FF2509E010F81F
:1057F000016B86EA0401154E765C86EA0504144EB8
:10580000755C1E00A3F10107BBB2F0D11470557096
:10581000F0BD30B502460B46002010E012F8014BF7
:105820006040002109E000F001041CB18C2484EAEE
:10583000600000E040104C1CE1B20829F3DB1C00C2
:10584000A3F10105ABB2E9D130BD00000082000830
:105850000083000808B501210420FEF703F80121A8
:105860000846FDF7FFFF4FF48070ADF800001020F0
:105870008DF8030003208DF8020069463748FDF7D4
:1058800035FD4FF480713548FDF7DDFD4FF40060C4
:10589000ADF8000010208DF8030003208DF8020001
:1058A00069462E48FDF722FD4FF48050ADF8000008
:1058B00003208DF8020010208DF803006946274868
:1058C000FDF714FD4FF40050ADF800006946234881
:1058D000FDF70CFD4FF48040ADF8000069461F480D
:1058E000FDF704FD4FF480411C48FDF7ACFD4FF47B
:1058F0000040ADF8000069461848FDF7F7FC4FF48A
:1059000000411648FDF79FFD0120ADF80000102072
:105910008DF8030069461148FDF7E8FC2020ADF83A
:10592000000010208DF8030069460C48FDF7DEFCEE
:105930004020ADF8000010208DF8030069460748AC
:10594000FDF7D4FC8020ADF8000010208DF8030096
:1059500069460248FDF7CAFC08BD00000008014086
:105960002DE9F04105460E461746FDF780F9352032
:10597000FDF718FC2846FDF7BFF9002407E036F8CC
:10598000141005EB4400FDF7BAFA601CC4B2BC4227
:10599000F5DB3520FDF706FCFDF775F9BDE8F08174
:1059A00010B50346002005E033F8104021F8104000
:1059B000441CE0B29042F7DB10BD00002DE9F04737
:1059C0000446FFF7C5FA3220FFF727FCFFF7DAFAA3
:1059D0003220FFF722FC5F20FFF788FBFFF713FB65
:1059E00000284ED13220FFF718FC0120FFF7ACFB56
:1059F0004F4908706420FFF710FC0120FFF7A4FB5B
:105A00004B4948706420FFF708FC0120FFF79CFB1E
:105A1000474988706420FFF700FC0120FFF794FBE2
:105A20004349C8706420FFF7F8FB0020FFF78CFBA8
:105A30003220FFF7F2FBFFF7C5FA3220FFF7EDFB4C
:105A40003B484078FF2806D139488078FF2802D1AA
:105A50000020BDE8F087364880783549497840EA2B
:105A6000012A5F2C0DD1504602F04AF80746314A10
:105A7000314B02F059F8054601F068FF814648466F
:105A8000E7E700BFE5E710B5FFF762FAFFF77AFA3C
:105A90008020FFF72BFBFE20FFF728FBFFF792FA91
:105AA00010BD10B5FFF76EFA8020FFF71FFBFFF760
:105AB000AAFA50B9E620FFF719FBFFF7A4FA20B9BC
:105AC0008320FFF713FBFFF79EFA10BD7CB500247F
:105AD00000250020019000905F20FFF76FFF044633
:105AE0000021204602F040FA0DD100BF694601A80E
:105AF00000F06BFF85B2D5B9BDF804000F490870FE
:105B00000020487013E0204602F062FA0B4908704A
:105B10000B49204602F0A8FA064602F059FAC0B234
:105B20000A2190FBF1F201FB1200044948707CBD90
:105B30003A0000209A9999999999B93F3E0000201E
:105B40000000204110B586B0044601210820FDF771
:105B500089FE01218804FDF792FE4FF48060ADF8C4
:105B6000140018208DF8170003208DF8160005A9E1
:105B70008948FDF7BBFB4FF40060ADF814004820E6
:105B80008DF8170005A98448FDF7B0FB01940020AB
:105B9000ADF80800ADF80A00ADF80C00ADF8100043
:105BA0000C20ADF80E0001A97C48FDF770FF012123
:105BB0007A48FDF7F8FF012240F225517748FDF7BA
:105BC000FEFF012240F224417448FDF7F8FF402116
:105BD0007248FEF7D0F827208DF8000000208DF8DD
:105BE000010003208DF8020001208DF803006846B3
:105BF000FDF7A1FE06B010BD70B505460E460024A7
:105C00000CE0295D6648FEF73BF800BF8021644840
:105C1000FEF7A4F80028F9D0601CC4B2B442F0DB4F
:105C200000BF40215E48FEF799F80028F9D0002017
:105C30005C49087070BD2DE9F04106460D46594893
:105C40000778002028700A20FFF70BFB55480078E2
:105C5000B84214D15348007888B1012052490870E5
:105C6000002404E05148005D3055601CC4B2BC42C1
:105C7000F8DB4C480078287000204A490870BDE8DD
:105C8000F08110B540214548FEF775F840F22551E6
:105C90004248FEF779F880B10020454908703F4836
:105CA000FDF7F2FFC4B243480078401C4149087038
:105CB00008460078401E40490C5440F224413748C1
:105CC000FEF762F848B1012039490870334800886E
:105CD000C4B23248001D0088C4B210BD0EB537A250
:105CE00006CACDE9011200210091324909786429E0
:105CF0002DDB2F49097851B3002022E02E49095CA1
:105D000042291DD12C4A411C515C4D2918D1C11C7E
:105D1000515C1C2914D100212A4A1180264A811D78
:105D2000515C284A128842EA0121264A1180224AFF
:105D3000C11D515C234A12881143224A118002E09E
:105D4000401C6428DADB00BF00211A4A11700EBD26
:105D50001FB5044622461CA101A801F02FF86A468F
:105D60001BA101A801F02EF9009804B010BD2DE987
:105D7000C04145EA042086B2F0B2FFF7E9FF804651
:105D800002F046F907463846BDE8C08110B5FFF776
:105D9000EEFF044610BD0000000C0140004800402A
:105DA0000044004048000020490000203C01002041
:105DB0004C0000204B000020D800002011020B01F5
:105DC000E100000040000020253032780000000093
:105DD00025780000014600BF704700BFF84A1288CE
:105DE00002F04002002AF9D0C2B2F54B1B1D1A8006
:105DF000704710B586B0044601210420FDF732FD3E
:105E000001218803FDF72EFDED48FDF7FDFD4FF460
:105E10008070ADF8140004208DF8170003208DF871
:105E2000160005A9E748FDF761FA4FF48071E548CF
:105E3000FDF709FB4FF40060ADF8140010208DF859
:105E4000170003208DF8160005A9DE48FDF74EFA6D
:105E50004FF40061DB48FDF7F8FA4FF48050ADF8DD
:105E6000140010208DF8170003208DF8160005A9E6
:105E7000D448FDF73BFA4FF48051D248FDF7E5FADC
:105E80004FF40070ADF8140002208DF816001820B1
:105E90008DF8170005A9CB48FDF728FA4FF480606C
:105EA000ADF8140004208DF8170005A9C548FDF7CA
:105EB0001DFA25208DF8000000208DF801008DF8D6
:105EC000020001208DF803006846FDF734FD0194BF
:105ED0000020ADF80800ADF80A00ADF80C00ADF8F0
:105EE00010000C20ADF80E000021B548FDF75BFE58
:105EF000B348FDF789FD01A9B148FDF7C8FD0122AE
:105F000040F22551AE48FDF75AFE012240F22441ED
:105F1000AB48FDF754FE0121A948FDF744FE06B049
:105F200010BDA94800887047A8490988C82904DA23
:105F3000A749A64A1288885C05E00021A34A11807F
:105F4000A3491288885C0021A24A1160A04A9F4B95
:105F50001B88D1549C49098821B19B490988491E55
:105F6000994A118001219B4A116098490988491C6E
:105F7000964A1180704795490988C82904DA9449DE
:105F8000924A1288885C05E00021904A118090496D
:105F90001288885C70478D4A1278521CD1B2C82989
:105FA00002DA8B4A505C02E00021894A505C70475B
:105FB00070B505460E4600248348008838B100BFFE
:105FC00003E000202855601C84B2B442F9DB0024B1
:105FD00004E0FFF7A9FF2855601C84B27A480088C6
:105FE0000028F6D1204670BD2DE9F04105460E4649
:105FF00000247548008838B100BF03E00020285510
:10600000601C84B2B442F9DB002400BF72480078FF
:106010000028FBD06C48008800284AD000240027C4
:1060200015E0FFF7A8FFFF2804D1FFF7B4FFFF2812
:1060300000D10EE0FFF79FFFF02804D1FFF7ABFF80
:10604000FE2800D105E0FFF76FFF781C87B2C82F4C
:10605000E7DB00BF002419E0FFF766FF2855601C4E
:1060600084B2B44200D115E0FFF785FFFF2804D1C8
:10607000FFF791FFFF2800D10CE0FFF77CFFFE281F
:1060800004D1FFF788FFF02800D103E04E480088D4
:106090000028E1D100BF4C48008850B900204B498E
:1060A00008804C4908604D49088001204C49C1F8DE
:1060B00094012046BDE8F08110B540F225514048DA
:1060C000FDF762FE18B30020434908703E4800887F
:1060D000C82817DA3A48001D00883D493F4A12880F
:1060E000885439480088401C374908803B4800885C
:1060F000401C3A49088008460088C82807DB002071
:10610000088004E040F225512D48FDF734FE40F2AE
:1061100024412B48FDF738FE48B101202E49087074
:1061200027480088C4B22648001D0088C4B240F247
:1061300027712348FDF728FE20B140F2277120483F
:10614000FDF719FE28211E48FDF748FE40F2277191
:106150001B48FDF743FE40F226611948FDF73EFE5D
:1061600040F225511648FDF739FE40F2244114480B
:10617000FDF734FE40F646011148FDF72FFE40F6CC
:106180006A110F48FDF72AFE60210D48FDF726FE33
:106190004FF458710A48FDF721FE4FF41871084872
:1061A000FDF71CFE4FF4B0710548FDF717FE10BD5A
:1061B00070B504460D464FF480569DB9002070BD61
:1061C0000038014000080140560000205000002027
:1061D0003C02002094012742580000205200002079
:1061E0000000274216B94FF6FF70E8E70BE000BF4A
:1061F00080210848FDF7B2FD0028F9D02078054934
:10620000091D0880641C2800A5F10101CDB2EED162
:1062100000BFD4E70038014008B501210820FDF790
:1062200021FB0420ADF8000010208DF803000320AE
:106230008DF8020069460448FDF758F80421024829
:10624000FDF701F908BD0000000C01401FB5012158
:106250000420FDF707FB01210846FDF703FB4FF47F
:106260000040ADF8000048208DF803006946214841
:10627000FDF73CF80F210020FDF74EF94FF40040E8
:10628000029000208DF80C000C208DF80D000120EC
:106290008DF80E0002A8FEF7D7FC28208DF8040028
:1062A00002208DF8050003208DF8060001208DF8EE
:1062B000070001A8FDF73FFB1FBD10B50A20FEF740
:1062C000D0FF4FF40040FEF725FD88B14FF40041A8
:1062D0000848FDF79EF838B90748007808B901204A
:1062E00000E00020044908704FF40040FEF70EFD66
:1062F00010BD0000000801406000002070B5054698
:106300000C4645F25550FEF71FFD2846FEF71FFDCF
:106310002046FEF71FFDFEF720FDFEF723FD70BDB2
:1063200010B5FEF71AFD10BD30B502460B46FF2032
:10633000002113E0555C684008240BE000F0800564
:1063400025B1312585EA4005E8B201E04506280E71
:10635000651EECB2002CF1DC4D1CA9B29942E9DBC0
:1063600030BD70B505460E46144631462846FFF747
:10637000DBFFA04202D04FF0FF3070BD0020FCE7F1
:1063800008B501210420FDF76DFA0C20ADF80000DE
:1063900014208DF8030003208DF802006946974809
:1063A000FCF7A4FF0C219548FDF74DF808BD08B592
:1063B0006846FDF726F80820ADF8000004208DF8A7
:1063C000030003208DF8020069468C48FCF78EFF1D
:1063D00008BD08B56846FDF714F80820ADF80000C0
:1063E00014208DF8030003208DF8020069468348CD
:1063F000FCF77CFF08BD10B508218048FDF723F8A5
:1064000010BD10B508217D48FDF71FF810BD10B56F
:1064100008217A48FCF7FDFF10BD10B5042177482C
:10642000FDF711F810BD10B504217448FDF70DF803
:1064300010BD10B504462046FEF7EFFE10BD70B546
:106440000546FFF7C6FF072415E0FFF7ECFF45FA06
:1064500004F000F0010010B1FFF7CDFF01E0FFF7FD
:10646000D0FF3220FFF7E5FFFFF7D7FF3220FFF71D
:10647000E0FF601E44B2002CE7DAFFF7D4FFFFF71D
:10648000BAFF3220FFF7D5FFFFF791FFFFF7C5FFF7
:106490003220FFF7CEFFFFF7BAFF08B1012000E07E
:1064A00000200646FFF7BFFF304670BD70B50546B9
:1064B0000026FFF7A0FFFFF77AFF072414E0322041
:1064C000FFF7B7FFFFF7A9FF3220FFF7B2FFFFF793
:1064D0009EFF08B1012000E00020A0403043C6B27A
:1064E000FFF7A1FF601E44B2002CE8DAFFF771FF4E
:1064F0003220FFF79EFF15B1FFF783FF01E0FFF7A2
:106500007AFF3220FFF795FFFFF787FF3220FFF772
:1065100090FFFFF788FFFFF76EFF304670BD10B5A4
:10652000FFF757FFFFF76DFF3220FFF782FFFFF7FE
:106530007AFF3220FFF77DFF10BD10B5FFF749FF4E
:10654000FFF75FFF3220FFF774FFFFF766FF32208F
:10655000FFF76FFFFFF74FFF3220FFF76AFF10BD15
:106560002DE9F04106460F469046FFF7D8FF710629
:10657000080EFFF764FF054625B1FFF7DEFF28464A
:10658000BDE8F081002409E0385DFFF758FF0546BB
:1065900015B1FFF7D2FF03E0601C84B24445F3DB82
:1065A00000BFFFF7CAFF2846EAE72DE9F04105469C
:1065B0000E461746FFF7B3FF012101EB4501C8B2B4
:1065C000FFF73DFF8046B8F1000F04D0FFF7B5FF9D
:1065D0004046BDE8F081002405E00120FFF766FF9A
:1065E0003055601C84B2BC42F7DBFFF7A6FF404683
:1065F000EFE710B5FFF7C4FE10BD00000008014032
:106600002DE9FE4F0746884608EB48001FFA80F93F
:106610006D464A4629465820FFF7C7FF8246BAF121
:10662000000F03D04FF0FF30BDE8FE8F002400269E
:1066300014E0A11C6A5C28190221FFF792FE401C9D
:1066400010B94FF0FF30EFE7285DB855601C295CAA
:10665000701C3954E01C84B2B01C86B24C45E8DB97
:106660000020E1E770B50446022221465820FFF7DA
:1066700077FF054615B14FF0FF3070BD0020FCE7F5
:106680002DE9F05F0546B5F80890CB464FEA4B0080
:1066900000F03DFB0746002406E0F84830F81400FF
:1066A00027F81400601C04B24C45F6DB2889401E14
:1066B00004B2002620E02889001B401E696851F8BA
:1066C000208037F81400001217F8141040EA012057
:1066D0001FFA80FAD8F8000038B15046D8F80010F8
:1066E0008847E64921F8160002E0E44820F816A0A1
:1066F000601E04B2701C06B2002CDCDA384600F0D2
:1067000035FBBDE8F09F70B50546DC481C380078C5
:10671000012810D12989D948FFF772FF044614B126
:106720004FF0FF3070BD2846FFF7AAFF0020D34985
:106730001C390870F6E74FF0FF30F3E72DE9F04120
:1067400007460C4615461E463846FFF78BFF401C91
:1067500018B94FF0FF30BDE8F0812046FFF769FE21
:1067600031462846FFF74CFFF5E770B50446206830
:10677000451D04F10C00FFF775FF401C10B94FF0E8
:10678000FF3070BD2846FFF754FE2089002807DD42
:106790000120BA491C3908702046FFF7B4FFF0E722
:1067A0000020EEE70246002300210BE0B3481C382E
:1067B0008069006850F82130987A904200D107E053
:1067C000481CC1B2AD481C38806980888842EDDC25
:1067D00000BFAA481C3880698088884201D1002007
:1067E00070471846FCE770B505462846FFF7DAFF04
:1067F000044614B94FF0FF3070BD2046FFF7B5FFD7
:10680000401C10B94FF0FF30F6E70020F4E72DE907
:10681000F84F04460F4690469A4600253A78294696
:106820006D1C62547A7829466D1C6254002622E061
:1068300038F81600001218F8161040EA012080B24D
:10684000009002216846FFF76FFD8146BDF8000009
:10685000C2B22846691CCDB22254BDF80000020A1B
:106860002846691CCDB222542846691CCDB204F8D2
:106870000090701CC6B25645DADB2846BDE8F88F9A
:10688000F0B504464FF0FF3026883612277846EAE6
:106890000726B3B2794E1C3E3382794E774F1C3FA8
:1068A000BE61002530E0774E366856F8251000228C
:1068B00024E08E6836F8126006F4704603F47047E0
:1068C000BE4219D103F48076B6B98E6816F812600C
:1068D00006F0E00603F0E007BE420DD18E6816F820
:1068E000126006F01F0603F01F07BE4204DC634E71
:1068F0001C3EB161002004E0561C32B28E899642E3
:10690000D7DC00BF6E1C35B25E4EB688AE42CADC24
:10691000F0BD38B50446002020805B48FFF7A2FE9A
:1069200010B14FF0FF3038BD5848FFF782FD01210C
:106930006846FFF765FE10B14FF0FF30F3E7BDF892
:1069400000000012BDF8001040EA012020802088DD
:10695000B0F5544F01D10020E5E74FF0FF30E2E7FA
:1069600010B50120FFF71EFF044614B94FF0FF30A9
:1069700010BD04F10C00FFF775FE401C10B94FF07C
:10698000FF30F5E701203D491C3908700020EFE792
:1069900070B504460D460120FFF704FF064616B900
:1069A0004FF0FF3070BD3046FFF7ADFE401C10B910
:1069B0004FF0FF30F6E731481C38808B20802F489D
:1069C0001C38C08B28800020ECE770B504460D46CB
:1069D0000120FFF708FF401C10B94FF0FF3070BDD9
:1069E00026481C38808B208024481C38C08B288087
:1069F0000020F4E710B5FFF7B3FF10BD38B504462B
:106A000069462046FFF7C4FF38BD38B504466946DD
:106A10002046FFF7DAFF38BD10B5FFF7A1FF10BD24
:106A200038B5044621466846FFF7B2FF38BD38B591
:106A3000044621466846FFF7C8FF38BD70B50446D6
:106A40000D4613480078FFF7CEFE401C10B94FF0FA
:106A5000FF3070BD09481C38808B208007481C38E7
:106A6000C08B28800020F4E710B509480078FFF7B4
:106A700099FE044674B94FF0FF3010BD2403002086
:106A8000088400083886000804840008605B03005E
:106A90001884000804F10C00FFF7E4FD401C10B955
:106AA0004FF0FF30E9E70120914908700020E4E74A
:106AB00070B504460D468F480078FFF773FE064612
:106AC00016B94FF0FF3070BD3046FFF71CFE401C7A
:106AD00010B94FF0FF30F6E78548808B208084485E
:106AE000C08B28800020EEE770B504460220FFF737
:106AF0007AFE0546681C10B94FF0FF3070BD7C4827
:106B0000808B20807A48C08B6080206810B94FF05D
:106B1000FF30F3E70020F1E731B582B00825029895
:106B200010B94FF0FF303EBD0320FFF73BFE044697
:106B300014B94FF0FF30F6E7022302AA04F10C016A
:106B40006846FFF764FE082269465820FFF708FDF3
:106B500010B14FF0FF30E6E70020E4E7FEB5054650
:106B600005266348007C00F0E000012805D160485C
:106B7000007C00F01F00002802DA4FF0FF30FEBD5D
:106B80005D480078FFF70EFE044614B94FF0FF3061
:106B9000F5E7B5F57A3F02D94FF0FF30EFE74FF454
:106BA0008070A5FB001244F289130020A1FB037C36
:106BB00002FB03C201FB0020010241EA176080B220
:106BC0000290012302AA04F10C016846FFF71FFEA0
:106BD000052269465820FFF7C3FC10B14FF0FF3083
:106BE000CDE70020CBE745A070475820704702460C
:106BF0003F48007C10803E48008A000B087000204F
:106C0000704701463A48C2688068C1E90002002026
:106C1000704710B50020FFF7E6FD10BD2DE9F041EB
:106C2000334C1C34002032490870FFF7E2FC022389
:106C300022464FF4FA713348FFF780FD0546681C81
:106C400010B92846BDE8F08121792068000C40EA9F
:106C50000140C0F3072120790304226843EA12406F
:106C600041EA002082B22088C0F30720217840EA60
:106C7000012042EA004000226168090C41EA024119
:106C8000C1F307236168090C41EA024143EA01218B
:106C90008EB2A188C1F30723217943EA012146EA94
:106CA000014100231B400A4340EA0301100C40EA63
:106CB0000140090C0E4AC2E9020101231C324FF4C3
:106CC0007A711148FFF73AFD0546681C10B94FF07C
:106CD000FF30B7E706481C30FFF7D2FD0546681CB9
:106CE00010B94FF0FF30ADE7FFF793FFAAE70000C0
:106CF000080300201884000819840008332E302E61
:106D0000300000000084000802840008704770B55D
:106D1000064600F047FA056806F10B0020F007046C
:106D2000B4429CBF002070BD2B466A68BAB110689F
:106D3000A04210D304F1080188423CBF506858605B
:106D400007D35168101941601168091B0160586030
:106D50001460101D70BD13465268002AE7D1214609
:106D6000284600F027FA0028DED170BD70B5044631
:106D7000051F00F017FA0068002C14BF446870BDAE
:106D8000002C18BFAC423CBF20466468F8D30168B1
:106D90000A18AA4218BF456003D12A680546114463
:106DA000016028684119A1421CBF6C6070BD616818
:106DB000696021680844286070BD00000FB41CB5EC
:106DC000074B06AA7B4469460090059800F09BFAA1
:106DD0000020694600F0AAFA1CBC5DF814FB000014
:106DE0006505000070B5044685690068C10601D5D7
:106DF000302600E02026C00707D070BDD4E901216D
:106E000030469047206A401C20626D1EF6D570BD4A
:106E100070B5044685690078C00707D170BDD4E914
:106E2000012120209047206A401C20626D1EF6D56B
:106E300070BD000070B504460D4621461068AFF3E2
:106E400000802188090502D50F4A7A4402E00E4AE3
:106E50007A440E32002104F1240305E000F00F060D
:106E60000009965D5E54491C0028F7D12078002364
:106E7000000704D5702D02D009B10223113220463B
:106E8000BDE8704000F0E0B9F21700002DE9F05FB6
:106E9000894604464FF0000ADFF824B1FB44C0F8ED
:106EA00020A02046E168884700287DD0252806D00C
:106EB000D4E901219047206A401C2062F1E70025B7
:106EC0005F462046E16888472028064607DB312ECA
:106ED00005D2B81910F8200C08B10543F1E7A8074E
:106EE00001D525F00405C4F81CA00027C4F818A09B
:106EF0002A2E09D0304600F00BFD38B304EB87088A
:106F0000303EC8F8186019E059F8041B204604EB1D
:106F100087029161E1688847012F064618D1E06930
:106F2000002820DA25F020051DE0D8F8180000EB35
:106F3000800006EB40003038C8F818002046E168B1
:106F40008847064600F0E4FC0028EED1012F0AD065
:106F50002E2E08D12046E16888477F1C0646022F66
:106F600045F02005C4DBA069002803DA404245F063
:106F70000105A061E80701D025F01005A6B1A6F132
:106F80004100192802D8203645F400654A463146AA
:106F9000204625604D46FBF7E3FC60B1012807D091
:106FA000ED1D25F0070000E007E000F1080978E793
:106FB00005F1040975E730467AE7206ABDE8F09FDD
:106FC000C81700000FB400B58DB010A9099000914A
:106FD0000B904FF0FF300A9000200C900648784448
:106FE0000690064878446A4607900F9909A800F071
:106FF000B7F90DB05DF814FB9F030000B703000064
:107000002DE9FF5F1D464FF0FF3B91464FF0000812
:107010005F46D5E90146A96901987F1C8847296A1E
:10702000824688470028F6D1BAF1FF3F0CD0002EE7
:1070300024F4C06419DD600614D5BAF12B0F09D011
:10704000BAF12D0F0ED103E0584604B0BDE8F09F11
:1070500044F48064A96901987F1C8847761E8246A3
:10706000002E02DDBAF1300F03D0B9F1000F26D0A7
:1070700032E0A969761E01987F1C44F400748847A9
:10708000002E824605DDBAF1780F06D0BAF1580F0E
:1070900003D0B9F1000F10D01EE0B9F1000F02D0FB
:1070A000B9F1100F18D1A969761E01987F1C24F43C
:1070B000007488478246102002E0082000E00A2081
:1070C000814609E0A96908FB0908761E01987F1C22
:1070D00044F4007488478246002E05DD4946504638
:1070E00000F029F90028EDDAE96901988847A00540
:1070F00002D46FF00100A8E7E00725D1600613D5A0
:10710000600502D5C8F1000000E0404629680A1D6C
:107110002A600968220501D5087015E0220701D50B
:10712000088011E008600FE02868011D29600068F0
:10713000210502D580F8008006E0210702D5A0F8DD
:10714000008001E0C0F8008038467EE74FF0000282
:1071500000B5134694469646203922BFA0E80C504D
:10716000A0E80C50B1F12001BFF4F7AF090728BF28
:10717000A0E80C5048BF0CC05DF804EB890028BFA4
:1071800040F8042B08BF704748BF20F8022B11F0CD
:10719000804F18BF00F8012B704770477047704749
:1071A0007047000000487047400300207047704758
:1071B0007047704738B504460A4600206946AFF369
:1071C0000080002808BF38BD02460099204600F024
:1071D000FBF8012038BD012000F0D4BAF8B5AFF3B8
:1071E0000080054600200C46102000BF0646A81966
:1071F000A0420DD9324669460020AFF30080070057
:1072000008BF00F0BFFA0098A04218BF0546C41995
:10721000FFF7C8FF05600746F01D20F0070046197C
:10722000284600F00AF8B44208BFF8BDA21B314658
:107230003868BDE8F84000F0C7B800210160C0E937
:1072400001107047102070472DE9F0470D46994610
:107250009246044600F124080168880604D5E069D6
:1072600021F01001216000E00120A84201DD471B50
:1072700000E00027A1697A1902EB0900081AA06151
:107280002078C00602D42046FFF7ACFD002608E0B7
:10729000D4E901211AF806009047206A401C761CA8
:1072A00020624E45F4DB2078C0060AD52046FFF761
:1072B00099FD06E0D4E9012130209047206A401C66
:1072C0002062381EA7F10107F4DC07E0D4E90121B0
:1072D00018F805009047206A401C2062281EA5F17E
:1072E0000105F3DC2046FFF793FD2078000602D568
:1072F0000220BDE8F0870120FBE7000001694A1C7D
:1073000002610878704700B58FB0CDE901310021E6
:10731000059105497944CDE9031011466846FFF708
:10732000B5FD0FB000BD0000E5FFFFFF0A6802F8E1
:10733000010B0A6070473A2800D2303820F0200252
:10734000412A01D3A2F13700884201D34FF0FF3028
:1073500070470000026811441378016018467047B6
:10736000D160054979445161044979441162002191
:107370001161114600F04CB8EDFFFFFF8F000000D7
:10738000426842B1016811F8013B23B1521EC0E9C5
:107390000012184670470121C160881E704742687C
:1073A0005AB1C368016843B983688B4205D0491E4E
:1073B000521CC0E90012002070474FF0FF307047A8
:1073C0000048704738030020034640688C46002878
:1073D00018BF88423CBF03464068F8D31868184479
:1073E000884207D00CF1030020F00700001D411A6D
:1073F000521A0146081D0A60FFF7B8BC10B50446D2
:1074000000F0ECF90068005D00F0010010BD000024
:107410002DE9F34F4FF0000A0C4656468DB001207F
:107420000C9001F10C000B9062690B9801219047C0
:1074300005002DD0252D2CD0216A8847C0B1626966
:107440000B9801219047216A88470028F7D162698B
:10745000411E0B98904700E0761CA1690D98884763
:10746000216A88470028F7D1E1690D988847DBE752
:10747000A1690D988847A842074601D1761CD3E739
:10748000E1690D9888477F1C02D1BAF1000F6FD0D7
:107490006BE162690B9800273D46394690472A28E0
:1074A00004D162690B98012190470125DFF8D08251
:1074B00062690B9801219047A0F130010A290AD294
:1074C0004745E5DC07EB870100EB4107303FDFD4A0
:1074D00045F01005ECE7E90601D46FF000476C2891
:1074E0000AD04C2814D0682815D06A280DD07428EA
:1074F0001CD07A281AD01DE062690B9801219047B0
:107500006C2802D045F0040514E045F002050DE0BA
:1075100045F020050AE062690B9801219047682830
:1075200002D045F0080505E045F4006562690B9856
:1075300001219047C4E9015765283DD019DC58283E
:107540007AD00CDC452837D004DC252826D0412809
:107550009ED131E046282FD0472899D12CE05B28D6
:1075600077D0612828D063287CD0642823D15AE0C2
:10757000F6E06F2848D008DC66281DD067281BD0AD
:10758000692821D06E2816D127E0702845D07328AD
:1075900068D0752847D078280DD14DE0A1690D98A5
:1075A0008847252805463FF469AFE1690D9888476B
:1075B0006D1C3FF46AAFD8E00D9923466A466FF020
:1075C0000100AFF30080C5E045F0400023464FF0D6
:1075D00000026060A80736D43EE0E8077FF447AFBA
:1075E0002068011D21600068290501D506701BE790
:1075F000290701D5068017E7A90703D5F117C0E9C8
:10760000006111E706600FE745F0400023464FF0A8
:1076100008026060A80716D41EE040F60E0125EAB5
:107620000100606016E045F0400023464FF00A027A
:107630006060A80707D40FE045F040006060A8072D
:1076400008D5234610220D996FF00100AFF300809A
:1076500080E007E0102223460D996FF00100FFF74C
:10766000CFFC77E04FF0000963284F46C8464B46F1
:10767000CB4602D05B2806D038E0E80601D40120D2
:10768000A060012732E06269D4F80CB00B980121A8
:1076900090475E2807D14FF0010949466269D4F846
:1076A0000CB00B989047216939B900210A4603AB09
:1076B00043F82120491C0829FADBD8B3216949B3D2
:1076C00008F1010862690B98012190475D28F4D107
:1076D000B9F1000F09D0002003A951F82020D243AE
:1076E00041F82020401C0828F7DB03AB2069002864
:1076F00020794FEA40701ED05B462246CDF80080CC
:10770000CDE901970D9900286FF0010020DAAFF361
:1077100000801FE0C11703AA00EBD1614B1121F0DB
:107720001F0102EB8302411A1368012088400343C2
:107730001360C7E719E00D99224600286FF0010099
:10774000009702DAAFF3008004E0AFF3008001E0BD
:10775000AFF3008000280ADA401C06D10C9820B153
:107760004FF0FF300FB0BDE8F08F5046FAE7E90761
:1077700001D10AF1010A064400200C9054E60000F1
:10778000CCCCCC0C10B500F03DF8BDE8104000F0BA
:1077900033B87546FFF714FEAE46050069465346FA
:1077A00020F00700854618B020B5FBF72DFDBDE899
:1077B00020404FF000064FF000074FF000084FF058
:1077C000000B21F00701AC46ACE8C009ACE8C009E9
:1077D000ACE8C009ACE8C0098D46704710B500F0B0
:1077E00039F8001D10BD00BF390100000446AFF399
:1077F00000802046FBF7D3F8002801D0FEF7EABA54
:107800007047000010B5012805D0002103A000F04A
:1078100025F8012010BD09A1F8E70000534947529F
:10782000544D454D3A204F7574206F662068656150
:1078300070206D656D6F7279000000003A20486518
:107840006170206D656D6F727920636F72727570F3
:1078500074656400004870475803002070B5054601
:107860000C460A2000E06D1CFDF7BCFC35B1287801
:107870000028F8D102E0641CFDF7B4FC14B12078B4
:107880000028F8D1BDE870400A20FDF7ABBC00002D
:107890004FF0013C50F8042B51F8043B9A4221D19F
:1078A000A2EB0C03934313EACC1317D150F8042B2B
:1078B00051F8043B9A4215D1A2EB0C03934313EA0F
:1078C000CC130BD150F8042B51F8043B9A4209D148
:1078D000A2EB0C03934313EACC13DBD04FF0000070
:1078E000704700BFD01A01BAB1FA81F101F0180156
:1078F00022FA01F0CB40C1F12001DBB2C0B2C01AC4
:107900002CFA01F3D11A914311EAC311E6D1704761
:1079100030380A2801D2012070470020704700004B
:1079200010B500290AD00878002807D00548784407
:10793000FFF7AEFF002801D0002010BD02487844B8
:1079400010BD00006E0D0000660D000021F0004229
:10795000A2F16052B2F5801F01F0004328BFD2F1BE
:107960007F6C0BD95FEA001C43EAC20242EB507005
:1079700018BF704728BF20F001007047B2F5801F84
:10798000BCBF184670474FEA410C1CF5001F02D2DD
:10799000084600F030BC70B500F070F900000089B6
:1079A000FFF7F6BF4FF00040A0F5800070470000E1
:1079B00010B591EA030F48BF83F0004300F1BA818C
:1079C000841A71EB030C05D2121943EB0C03001B54
:1079D00061EB0C01DFF824E14FEA1154A4EB135CD6
:1079E0001EEA430F18BF9EEA445F73D023EA0E03DA
:1079F000DCF1200E21EA045143F4801332D322FA41
:107A00000CFE10EB0E0023FA0CFE41EB0E01CCF144
:107A1000200E03FA0EFE10EB0E0051F10001B1F53D
:107A2000801FCCF1200E32D201EB045112FA0EF27B
:107A3000BDE8104058BF7047401C38BF5FEA4202A3
:107A400018BF7047002814BF20F0010041F1000169
:107A50004FEA410313F5001F38BF7047A1F1C04141
:107A600000F05AB9012A43EB0302ACF1200CDCF11F
:107A70001F0E32BF4FF0000E23FA0CF310EB030081
:107A800041EB0451B4EB115FD0D0A1EB045101F5EF
:107A9000801149085FEA300001EB04510ED350F128
:107AA000000038BF12FA0EFE08D1BDE81040C9E749
:107AB000401C38BF5FEA4202CAD1C3E7BDE81040AC
:107AC0004FEA410313F5001F38BF7047A1F1C041D1
:107AD00000F022B99EEA445F08D011EA5E0FBDE8CB
:107AE000104004BF01F0004100207047BDE8104085
:107AF00070B500F0C3F800BF64FBBE3E0000E0FFBD
:107B0000B0FA80F310FA03F10AD0C3F11D0303F5B4
:107B100080634FEA41504FEA035202EBD121704794
:107B20004FF0000070470000DFF848C170B51CEA54
:107B3000111E1EBF1CEA13159EEA0C0F95EA0C0FCE
:107B400000F06F8081EA030423EA4C134EEAD47EEE
:107B500021EA4C1141F4801143F48013AE44A1FB9F
:107B6000024CA0FB0365AEF17F7E361955EB0C0588
:107B7000A1FB034C4CF10003A0FB021C16EB0C060E
:107B8000654153F10003094218BF46F0010613F4A2
:107B9000007F0BD14FEA03314FEA0530340341EA4D
:107BA000155140EA16506FF003020AE04FEAC32174
:107BB0004FEAC520F40241EA555140EA56506FF0B1
:107BC000020202EB2E4201EB025585EACE710AD089
:107BD0005FEA440C18BF24F0004450F1000041F16A
:107BE000000120EAD47040F2FE7C624500D270BDF4
:107BF000A84214BF4FF080444FF04044002E08BF0D
:107C00000024BEF1806FA8BFA1F1C041BDE8704063
:107C100080F282804FF0000001F1C04101F000418C
:107C200070479EEA0C0F0CEA131518BF95EA0C0F6B
:107C300006D04FF0000081EA030E0EF0004170BD47
:107C400000F01CF88900013E00F007B800F009B808
:107C50004FEA430C5FEA5C5C08D081EA030100F064
:107C60005BB84FEA410C5FEA5C5CF6D14FF0000074
:107C7000014970470000FF070000F87F0EF1020E77
:107C80002EF0030E5EF8046B364205D4012A43EB56
:107C9000030515F5001F12D8012841EB010C1CF556
:107CA000001F0CD80ED14FEAD17C15F5001F0CEB4C
:107CB0004C0C0CF1020C08BF4CEBD37C04E04FF0F1
:107CC000080C01E04FEAD37C0CEB4C0526FA05F6D4
:107CD00006F00706B6F1040C06D20EEB860CBDE8E2
:107CE00070404CF0010C6047DFE80CF0090B020219
:107CF0004FF000414FF00000A1F5002170BD194682
:107D00001046012851EB010418BFD4F5001484BFBC
:107D1000002001F0004170BD0808A0F500114FEAF5
:107D20003101704710B591EA030F48BF83F000435B
:107D30003FF546AE841A71EB030C07D212198CF092
:107D4000004C43EB0C03001B61EB0C01DFF8A4E1DA
:107D50004FEA1154A4EB135C1EEA430F18BF9EEACE
:107D6000445F00F0B08023EA6E03524221EA0451DE
:107D7000C3EB6E0338BF5B1EDCF1200E25D322FA65
:107D80000CFE10EB0E0043FA0CFE41EB0E01CCF1A1
:107D9000200E03FA0EFE10EB0E0051F10001CCF1A3
:107DA000200E29D412FA0EF201EB0451BDE8104066
:107DB00058BF7047401C1CBFB2F1004F70470028ED
:107DC0000CBF491C20F00100704712EB020E43EB80
:107DD000030218BF4FF0010E4EEA4202ACF1200C34
:107DE000DCF11E0E54D943FA0CFE10EB0E0051F1DB
:107DF000FF31CCF11E0ED5D50EF1010E12FA0EFE9A
:107E0000404141EB010101EB445C5FEA5C5C10D94D
:107E100010EBDE7001EB045138BFBEF1004FBDE83E
:107E2000104018BF704700280CBF491C20F001000B
:107E3000704730D24FEAD42C11F5001124F40064BD
:107E40001BD0B1FA81F20B3AA41AA41ED2F120037E
:107E5000914030FA03F31943904001EBCC71002CB0
:107E600001EB0451BDE81040A8BF704701F1C041CB
:107E70004FF0000001F000417047B0FA80F310FAB3
:107E800003F100D110BDE41A173C4805C90AE4E724
:107E900001EB045110BD491001EB0451BDE8104045
:107EA0004FEA300002E04FF0000170474A0008BF7F
:107EB0000042F8D0B2F5001F28BF704701F0004122
:107EC0004FF0000070479EEA445F07D011EA5E0F52
:107ED000BDE8104004BF002100207047BDE81040FD
:107EE00070B5FFF7CBFE00BF40DFF63E83F00041E8
:107EF000104670470000E0FF43004FEAD30C4FEA02
:107F00003C0C43401FBF40070CF1605113F0FE4F83
:107F100070471CF0006F03D100200CF00041704747
:107F20000CF0004343EA507010B540EACC0000F07A
:107F30001CF900BF000000924FEA0001FFF7ECBE01
:107F40004FF000414FF00000A1F5002170474010B4
:107F500058BFC0F14040491058BFC1F14041814273
:107F6000EFF300807047000050EA010C00F113802D
:107F70001CF5000F58BFBCF5000F01D488427047B4
:107F800007D710F5000F58BF11F5000F15D4884220
:107F90007047894270471CF5000F04D5BCF5000FEF
:107FA000F7D5814270474FF0807C1CEB400F38BF03
:107FB0001CEB410F01D28142704710B500F0D5F89B
:107FC000922449004FF000504FF08051FFF7BFBF9F
:107FD000C10DD1F19E0206DB4FEA002343F00043BE
:107FE00023FA02F07047004207D54FEA4001B1F191
:107FF000FE4F02D24FF00000704710B500F0B5F808
:1080000049922480002070476FEA200070470000EA
:1080100010F0004148BF4042B0FA80F310FA03F27A
:10802000C3F19D030BD051EAC35101EB122053065B
:1080300038BF704700F1010008BF20F00100704711
:10804000B0FA80F310FA03F2C3F19D030AD0D90508
:1080500001EB1220530638BF704700F1010008BF42
:1080600020F00100704700004FF47F0C1CEAD01292
:108070001EBF1CEAD11392EA0C0F93EA0C0F00F01A
:10808000478090EA010F48BF42F480724FF0004CE5
:108090004CEA00204CEA012102EB0302A0FB011391
:1080A000A2F50002002918BF43F001035B0028BFBE
:1080B0004FEA330342EB22425FEA132C4CEBC250EF
:1080C0002EBFBCEB436FB2F57C0F70474FEA036CD9
:1080D000BCF1004F08BF20F00100B2F57C0F38BFA3
:1080E00070470BD582F0FF0212F5803FC8BF704782
:1080F00000F1C040D8BF00F00040704700F5000C10
:108100005FEA4C0C48BF7047B0F1C04000F073B854
:1081100090EA010F0CEAD11348BF42F48072624525
:1081200038BF634504D280EA010000F00040704788
:1081300010B500F01AF800BF8900013E00F007B842
:1081400000F009B85FEA410C5FEA1C6C08D080EAD5
:10815000010000F050B85FEA400C5FEA1C6CF6D1F9
:108160004FF00040A0F5800070470EF1020E2EF097
:10817000030E5EF8044B244204D44FEA4102B2F1EC
:108180007F4F11D84FEA4003B3F17F4F0CD80ED187
:108190004FEAD07CB2F17F4F0CEB4C0C0CF1020C8F
:1081A00008BF4CEBD17C04E04FF0080C01E04FEA33
:1081B000D17C0CEB4C0324FA03F404F00704B4F173
:1081C000040C06D20EEB840CBDE810404CF0010C00
:1081D0006047DFE80CF0070802024FF00040A0F50E
:1081E000800010BD0846420018BFD2F1807288BFDF
:1081F00000F0004010BDFF2141EAD050C00570479B
:1082000000C1814001C0804101C0804100C1814066
:1082100001C0804100C1814000C1814001C0804156
:1082200001C0804100C1814000C1814001C0804146
:1082300000C1814001C0804101C0804100C1814036
:1082400001C0804100C1814000C1814001C0804126
:1082500000C1814001C0804101C0804100C1814016
:1082600000C1814001C0804101C0804100C1814006
:1082700001C0804100C1814000C1814001C08041F6
:1082800001C0804100C1814000C1814001C08041E6
:1082900000C1814001C0804101C0804100C18140D6
:1082A00000C1814001C0804101C0804100C18140C6
:1082B00001C0804100C1814000C1814001C08041B6
:1082C00000C1814001C0804101C0804100C18140A6
:1082D00001C0804100C1814000C1814001C0804196
